{
	"contract/ReentrancyAttacks/VulnerableContract.sol": {
		"VulnerableContract": {
			"abi": [
				{
					"anonymous": false,
					"inputs": [
						{
							"indexed": false,
							"internalType": "string",
							"name": "message",
							"type": "string"
						},
						{
							"indexed": false,
							"internalType": "uint256",
							"name": "value",
							"type": "uint256"
						}
					],
					"name": "LogMessage",
					"type": "event"
				},
				{
					"inputs": [],
					"name": "Balance",
					"outputs": [
						{
							"internalType": "uint256",
							"name": "",
							"type": "uint256"
						}
					],
					"stateMutability": "view",
					"type": "function"
				},
				{
					"inputs": [
						{
							"internalType": "address",
							"name": "",
							"type": "address"
						}
					],
					"name": "balances",
					"outputs": [
						{
							"internalType": "uint256",
							"name": "",
							"type": "uint256"
						}
					],
					"stateMutability": "view",
					"type": "function"
				},
				{
					"inputs": [
						{
							"internalType": "uint256",
							"name": "value",
							"type": "uint256"
						}
					],
					"name": "deposit",
					"outputs": [],
					"stateMutability": "payable",
					"type": "function"
				},
				{
					"inputs": [
						{
							"internalType": "address",
							"name": "target",
							"type": "address"
						}
					],
					"name": "getBalance",
					"outputs": [
						{
							"internalType": "uint256",
							"name": "",
							"type": "uint256"
						}
					],
					"stateMutability": "view",
					"type": "function"
				},
				{
					"inputs": [],
					"name": "temp",
					"outputs": [
						{
							"internalType": "uint256",
							"name": "",
							"type": "uint256"
						}
					],
					"stateMutability": "view",
					"type": "function"
				},
				{
					"inputs": [
						{
							"internalType": "uint256",
							"name": "amount",
							"type": "uint256"
						}
					],
					"name": "withdraw",
					"outputs": [],
					"stateMutability": "nonpayable",
					"type": "function"
				}
			],
			"devdoc": {
				"kind": "dev",
				"methods": {},
				"version": 1
			},
			"evm": {
				"assembly": "    /* \"contract/ReentrancyAttacks/VulnerableContract.sol\":58:1213  contract VulnerableContract {... */\n  mstore(0x40, 0x80)\n  callvalue\n  dup1\n  iszero\n  tag_1\n  jumpi\n  revert(0x00, 0x00)\ntag_1:\n  pop\n  dataSize(sub_0)\n  dup1\n  dataOffset(sub_0)\n  0x00\n  codecopy\n  0x00\n  return\nstop\n\nsub_0: assembly {\n        /* \"contract/ReentrancyAttacks/VulnerableContract.sol\":58:1213  contract VulnerableContract {... */\n      mstore(0x40, 0x80)\n      jumpi(tag_1, lt(calldatasize, 0x04))\n      shr(0xe0, calldataload(0x00))\n      dup1\n      0x0ef67887\n      eq\n      tag_2\n      jumpi\n      dup1\n      0x27e235e3\n      eq\n      tag_3\n      jumpi\n      dup1\n      0x2e1a7d4d\n      eq\n      tag_4\n      jumpi\n      dup1\n      0x673402e5\n      eq\n      tag_5\n      jumpi\n      dup1\n      0xb6b55f25\n      eq\n      tag_6\n      jumpi\n      dup1\n      0xf8b2cb4f\n      eq\n      tag_7\n      jumpi\n    tag_1:\n      revert(0x00, 0x00)\n        /* \"contract/ReentrancyAttacks/VulnerableContract.sol\":980:1073  function Balance() public view returns (uint256) {... */\n    tag_2:\n      callvalue\n      dup1\n      iszero\n      tag_8\n      jumpi\n      revert(0x00, 0x00)\n    tag_8:\n      pop\n      tag_9\n      tag_10\n      jump\t// in\n    tag_9:\n      mload(0x40)\n      tag_11\n      swap2\n      swap1\n      tag_12\n      jump\t// in\n    tag_11:\n      mload(0x40)\n      dup1\n      swap2\n      sub\n      swap1\n      return\n        /* \"contract/ReentrancyAttacks/VulnerableContract.sol\":170:213  mapping(address => uint256) public balances */\n    tag_3:\n      callvalue\n      dup1\n      iszero\n      tag_13\n      jumpi\n      revert(0x00, 0x00)\n    tag_13:\n      pop\n      tag_14\n      0x04\n      dup1\n      calldatasize\n      sub\n      dup2\n      add\n      swap1\n      tag_15\n      swap2\n      swap1\n      tag_16\n      jump\t// in\n    tag_15:\n      tag_17\n      jump\t// in\n    tag_14:\n      mload(0x40)\n      tag_18\n      swap2\n      swap1\n      tag_12\n      jump\t// in\n    tag_18:\n      mload(0x40)\n      dup1\n      swap2\n      sub\n      swap1\n      return\n        /* \"contract/ReentrancyAttacks/VulnerableContract.sol\":431:948  function withdraw(uint256 amount) public {... */\n    tag_4:\n      callvalue\n      dup1\n      iszero\n      tag_19\n      jumpi\n      revert(0x00, 0x00)\n    tag_19:\n      pop\n      tag_20\n      0x04\n      dup1\n      calldatasize\n      sub\n      dup2\n      add\n      swap1\n      tag_21\n      swap2\n      swap1\n      tag_22\n      jump\t// in\n    tag_21:\n      tag_23\n      jump\t// in\n    tag_20:\n      stop\n        /* \"contract/ReentrancyAttacks/VulnerableContract.sol\":92:111  uint256 public temp */\n    tag_5:\n      callvalue\n      dup1\n      iszero\n      tag_24\n      jumpi\n      revert(0x00, 0x00)\n    tag_24:\n      pop\n      tag_25\n      tag_26\n      jump\t// in\n    tag_25:\n      mload(0x40)\n      tag_27\n      swap2\n      swap1\n      tag_12\n      jump\t// in\n    tag_27:\n      mload(0x40)\n      dup1\n      swap2\n      sub\n      swap1\n      return\n        /* \"contract/ReentrancyAttacks/VulnerableContract.sol\":246:384  function deposit(uint256 value) public payable {... */\n    tag_6:\n      tag_28\n      0x04\n      dup1\n      calldatasize\n      sub\n      dup2\n      add\n      swap1\n      tag_29\n      swap2\n      swap1\n      tag_22\n      jump\t// in\n    tag_29:\n      tag_30\n      jump\t// in\n    tag_28:\n      stop\n        /* \"contract/ReentrancyAttacks/VulnerableContract.sol\":1105:1211  function getBalance(address target) public view returns (uint256) {... */\n    tag_7:\n      callvalue\n      dup1\n      iszero\n      tag_31\n      jumpi\n      revert(0x00, 0x00)\n    tag_31:\n      pop\n      tag_32\n      0x04\n      dup1\n      calldatasize\n      sub\n      dup2\n      add\n      swap1\n      tag_33\n      swap2\n      swap1\n      tag_16\n      jump\t// in\n    tag_33:\n      tag_34\n      jump\t// in\n    tag_32:\n      mload(0x40)\n      tag_35\n      swap2\n      swap1\n      tag_12\n      jump\t// in\n    tag_35:\n      mload(0x40)\n      dup1\n      swap2\n      sub\n      swap1\n      return\n        /* \"contract/ReentrancyAttacks/VulnerableContract.sol\":980:1073  function Balance() public view returns (uint256) {... */\n    tag_10:\n        /* \"contract/ReentrancyAttacks/VulnerableContract.sol\":1020:1027  uint256 */\n      0x00\n        /* \"contract/ReentrancyAttacks/VulnerableContract.sol\":1046:1054  balances */\n      0x01\n        /* \"contract/ReentrancyAttacks/VulnerableContract.sol\":1046:1066  balances[msg.sender] */\n      0x00\n        /* \"contract/ReentrancyAttacks/VulnerableContract.sol\":1055:1065  msg.sender */\n      caller\n        /* \"contract/ReentrancyAttacks/VulnerableContract.sol\":1046:1066  balances[msg.sender] */\n      0xffffffffffffffffffffffffffffffffffffffff\n      and\n      0xffffffffffffffffffffffffffffffffffffffff\n      and\n      dup2\n      mstore\n      0x20\n      add\n      swap1\n      dup2\n      mstore\n      0x20\n      add\n      0x00\n      keccak256\n      sload\n        /* \"contract/ReentrancyAttacks/VulnerableContract.sol\":1039:1066  return balances[msg.sender] */\n      swap1\n      pop\n        /* \"contract/ReentrancyAttacks/VulnerableContract.sol\":980:1073  function Balance() public view returns (uint256) {... */\n      swap1\n      jump\t// out\n        /* \"contract/ReentrancyAttacks/VulnerableContract.sol\":170:213  mapping(address => uint256) public balances */\n    tag_17:\n      mstore(0x20, 0x01)\n      dup1\n      0x00\n      mstore\n      keccak256(0x00, 0x40)\n      0x00\n      swap2\n      pop\n      swap1\n      pop\n      sload\n      dup2\n      jump\t// out\n        /* \"contract/ReentrancyAttacks/VulnerableContract.sol\":431:948  function withdraw(uint256 amount) public {... */\n    tag_23:\n        /* \"contract/ReentrancyAttacks/VulnerableContract.sol\":514:520  amount */\n      dup1\n        /* \"contract/ReentrancyAttacks/VulnerableContract.sol\":490:498  balances */\n      0x01\n        /* \"contract/ReentrancyAttacks/VulnerableContract.sol\":490:510  balances[msg.sender] */\n      0x00\n        /* \"contract/ReentrancyAttacks/VulnerableContract.sol\":499:509  msg.sender */\n      caller\n        /* \"contract/ReentrancyAttacks/VulnerableContract.sol\":490:510  balances[msg.sender] */\n      0xffffffffffffffffffffffffffffffffffffffff\n      and\n      0xffffffffffffffffffffffffffffffffffffffff\n      and\n      dup2\n      mstore\n      0x20\n      add\n      swap1\n      dup2\n      mstore\n      0x20\n      add\n      0x00\n      keccak256\n      sload\n        /* \"contract/ReentrancyAttacks/VulnerableContract.sol\":490:520  balances[msg.sender] >= amount */\n      lt\n      iszero\n        /* \"contract/ReentrancyAttacks/VulnerableContract.sol\":482:545  require(balances[msg.sender] >= amount, \"Insufficient balance\") */\n      tag_38\n      jumpi\n      mload(0x40)\n      0x08c379a000000000000000000000000000000000000000000000000000000000\n      dup2\n      mstore\n      0x04\n      add\n      tag_39\n      swap1\n      tag_40\n      jump\t// in\n    tag_39:\n      mload(0x40)\n      dup1\n      swap2\n      sub\n      swap1\n      revert\n    tag_38:\n        /* \"contract/ReentrancyAttacks/VulnerableContract.sol\":601:618  bytes memory data */\n      0x00\n        /* \"contract/ReentrancyAttacks/VulnerableContract.sol\":621:669  abi.encodeWithSignature(\"nonExistentFunction()\") */\n      add(0x24, mload(0x40))\n      mload(0x40)\n      0x20\n      dup2\n      dup4\n      sub\n      sub\n      dup2\n      mstore\n      swap1\n      0x40\n      mstore\n      and(not(0xffffffffffffffffffffffffffffffffffffffffffffffffffffffff), 0x1566740300000000000000000000000000000000000000000000000000000000)\n      0x20\n      dup3\n      add\n      dup1\n      mload\n      0xffffffffffffffffffffffffffffffffffffffffffffffffffffffff\n      dup4\n      dup2\n      dup4\n      and\n      or\n      dup4\n      mstore\n      pop\n      pop\n      pop\n      pop\n        /* \"contract/ReentrancyAttacks/VulnerableContract.sol\":601:669  bytes memory data = abi.encodeWithSignature(\"nonExistentFunction()\") */\n      swap1\n      pop\n        /* \"contract/ReentrancyAttacks/VulnerableContract.sol\":681:693  bool success */\n      0x00\n        /* \"contract/ReentrancyAttacks/VulnerableContract.sol\":699:709  msg.sender */\n      caller\n        /* \"contract/ReentrancyAttacks/VulnerableContract.sol\":699:714  msg.sender.call */\n      0xffffffffffffffffffffffffffffffffffffffff\n      and\n        /* \"contract/ReentrancyAttacks/VulnerableContract.sol\":715:719  data */\n      dup3\n        /* \"contract/ReentrancyAttacks/VulnerableContract.sol\":699:720  msg.sender.call(data) */\n      mload(0x40)\n      tag_41\n      swap2\n      swap1\n      tag_42\n      jump\t// in\n    tag_41:\n      0x00\n      mload(0x40)\n      dup1\n      dup4\n      sub\n      dup2\n      0x00\n      dup7\n      gas\n      call\n      swap2\n      pop\n      pop\n      returndatasize\n      dup1\n      0x00\n      dup2\n      eq\n      tag_45\n      jumpi\n      mload(0x40)\n      swap2\n      pop\n      and(add(returndatasize, 0x3f), not(0x1f))\n      dup3\n      add\n      0x40\n      mstore\n      returndatasize\n      dup3\n      mstore\n      returndatasize\n      0x00\n      0x20\n      dup5\n      add\n      returndatacopy\n      jump(tag_44)\n    tag_45:\n      0x60\n      swap2\n      pop\n    tag_44:\n      pop\n        /* \"contract/ReentrancyAttacks/VulnerableContract.sol\":680:720  (bool success, ) = msg.sender.call(data) */\n      pop\n      swap1\n      pop\n        /* \"contract/ReentrancyAttacks/VulnerableContract.sol\":734:741  success */\n      dup1\n        /* \"contract/ReentrancyAttacks/VulnerableContract.sol\":730:878  if (success) {... */\n      iszero\n      tag_46\n      jumpi\n        /* \"contract/ReentrancyAttacks/VulnerableContract.sol\":762:796  LogMessage(\"Truly Sucess\", amount) */\n      0x69a6cf7852823a03f1e0278fa944045502fae9fb546695dbf1f50521651a8b73\n        /* \"contract/ReentrancyAttacks/VulnerableContract.sol\":789:795  amount */\n      dup4\n        /* \"contract/ReentrancyAttacks/VulnerableContract.sol\":762:796  LogMessage(\"Truly Sucess\", amount) */\n      mload(0x40)\n      tag_47\n      swap2\n      swap1\n      tag_48\n      jump\t// in\n    tag_47:\n      mload(0x40)\n      dup1\n      swap2\n      sub\n      swap1\n      log1\n        /* \"contract/ReentrancyAttacks/VulnerableContract.sol\":730:878  if (success) {... */\n      jump(tag_49)\n    tag_46:\n        /* \"contract/ReentrancyAttacks/VulnerableContract.sol\":832:867  LogMessage(\"Badly Failure\", amount) */\n      0x69a6cf7852823a03f1e0278fa944045502fae9fb546695dbf1f50521651a8b73\n        /* \"contract/ReentrancyAttacks/VulnerableContract.sol\":860:866  amount */\n      dup4\n        /* \"contract/ReentrancyAttacks/VulnerableContract.sol\":832:867  LogMessage(\"Badly Failure\", amount) */\n      mload(0x40)\n      tag_50\n      swap2\n      swap1\n      tag_51\n      jump\t// in\n    tag_50:\n      mload(0x40)\n      dup1\n      swap2\n      sub\n      swap1\n      log1\n        /* \"contract/ReentrancyAttacks/VulnerableContract.sol\":730:878  if (success) {... */\n    tag_49:\n        /* \"contract/ReentrancyAttacks/VulnerableContract.sol\":935:941  amount */\n      dup3\n        /* \"contract/ReentrancyAttacks/VulnerableContract.sol\":911:919  balances */\n      0x01\n        /* \"contract/ReentrancyAttacks/VulnerableContract.sol\":911:931  balances[msg.sender] */\n      0x00\n        /* \"contract/ReentrancyAttacks/VulnerableContract.sol\":920:930  msg.sender */\n      caller\n        /* \"contract/ReentrancyAttacks/VulnerableContract.sol\":911:931  balances[msg.sender] */\n      0xffffffffffffffffffffffffffffffffffffffff\n      and\n      0xffffffffffffffffffffffffffffffffffffffff\n      and\n      dup2\n      mstore\n      0x20\n      add\n      swap1\n      dup2\n      mstore\n      0x20\n      add\n      0x00\n      keccak256\n      0x00\n        /* \"contract/ReentrancyAttacks/VulnerableContract.sol\":911:941  balances[msg.sender] -= amount */\n      dup3\n      dup3\n      sload\n      tag_52\n      swap2\n      swap1\n      tag_53\n      jump\t// in\n    tag_52:\n      swap3\n      pop\n      pop\n      dup2\n      swap1\n      sstore\n      pop\n        /* \"contract/ReentrancyAttacks/VulnerableContract.sol\":472:948  {... */\n      pop\n      pop\n        /* \"contract/ReentrancyAttacks/VulnerableContract.sol\":431:948  function withdraw(uint256 amount) public {... */\n      pop\n      jump\t// out\n        /* \"contract/ReentrancyAttacks/VulnerableContract.sol\":92:111  uint256 public temp */\n    tag_26:\n      sload(0x00)\n      dup2\n      jump\t// out\n        /* \"contract/ReentrancyAttacks/VulnerableContract.sol\":246:384  function deposit(uint256 value) public payable {... */\n    tag_30:\n        /* \"contract/ReentrancyAttacks/VulnerableContract.sol\":308:338  LogMessage(\"deposited\", value) */\n      0x69a6cf7852823a03f1e0278fa944045502fae9fb546695dbf1f50521651a8b73\n        /* \"contract/ReentrancyAttacks/VulnerableContract.sol\":332:337  value */\n      dup2\n        /* \"contract/ReentrancyAttacks/VulnerableContract.sol\":308:338  LogMessage(\"deposited\", value) */\n      mload(0x40)\n      tag_55\n      swap2\n      swap1\n      tag_56\n      jump\t// in\n    tag_55:\n      mload(0x40)\n      dup1\n      swap2\n      sub\n      swap1\n      log1\n        /* \"contract/ReentrancyAttacks/VulnerableContract.sol\":372:377  value */\n      dup1\n        /* \"contract/ReentrancyAttacks/VulnerableContract.sol\":348:356  balances */\n      0x01\n        /* \"contract/ReentrancyAttacks/VulnerableContract.sol\":348:368  balances[msg.sender] */\n      0x00\n        /* \"contract/ReentrancyAttacks/VulnerableContract.sol\":357:367  msg.sender */\n      caller\n        /* \"contract/ReentrancyAttacks/VulnerableContract.sol\":348:368  balances[msg.sender] */\n      0xffffffffffffffffffffffffffffffffffffffff\n      and\n      0xffffffffffffffffffffffffffffffffffffffff\n      and\n      dup2\n      mstore\n      0x20\n      add\n      swap1\n      dup2\n      mstore\n      0x20\n      add\n      0x00\n      keccak256\n      0x00\n        /* \"contract/ReentrancyAttacks/VulnerableContract.sol\":348:377  balances[msg.sender] += value */\n      dup3\n      dup3\n      sload\n      tag_57\n      swap2\n      swap1\n      tag_58\n      jump\t// in\n    tag_57:\n      swap3\n      pop\n      pop\n      dup2\n      swap1\n      sstore\n      pop\n        /* \"contract/ReentrancyAttacks/VulnerableContract.sol\":246:384  function deposit(uint256 value) public payable {... */\n      pop\n      jump\t// out\n        /* \"contract/ReentrancyAttacks/VulnerableContract.sol\":1105:1211  function getBalance(address target) public view returns (uint256) {... */\n    tag_34:\n        /* \"contract/ReentrancyAttacks/VulnerableContract.sol\":1162:1169  uint256 */\n      0x00\n        /* \"contract/ReentrancyAttacks/VulnerableContract.sol\":1188:1196  balances */\n      0x01\n        /* \"contract/ReentrancyAttacks/VulnerableContract.sol\":1188:1204  balances[target] */\n      0x00\n        /* \"contract/ReentrancyAttacks/VulnerableContract.sol\":1197:1203  target */\n      dup4\n        /* \"contract/ReentrancyAttacks/VulnerableContract.sol\":1188:1204  balances[target] */\n      0xffffffffffffffffffffffffffffffffffffffff\n      and\n      0xffffffffffffffffffffffffffffffffffffffff\n      and\n      dup2\n      mstore\n      0x20\n      add\n      swap1\n      dup2\n      mstore\n      0x20\n      add\n      0x00\n      keccak256\n      sload\n        /* \"contract/ReentrancyAttacks/VulnerableContract.sol\":1181:1204  return balances[target] */\n      swap1\n      pop\n        /* \"contract/ReentrancyAttacks/VulnerableContract.sol\":1105:1211  function getBalance(address target) public view returns (uint256) {... */\n      swap2\n      swap1\n      pop\n      jump\t// out\n        /* \"#utility.yul\":7:84   */\n    tag_60:\n        /* \"#utility.yul\":44:51   */\n      0x00\n        /* \"#utility.yul\":73:78   */\n      dup2\n        /* \"#utility.yul\":62:78   */\n      swap1\n      pop\n        /* \"#utility.yul\":7:84   */\n      swap2\n      swap1\n      pop\n      jump\t// out\n        /* \"#utility.yul\":90:208   */\n    tag_61:\n        /* \"#utility.yul\":177:201   */\n      tag_88\n        /* \"#utility.yul\":195:200   */\n      dup2\n        /* \"#utility.yul\":177:201   */\n      tag_60\n      jump\t// in\n    tag_88:\n        /* \"#utility.yul\":172:175   */\n      dup3\n        /* \"#utility.yul\":165:202   */\n      mstore\n        /* \"#utility.yul\":90:208   */\n      pop\n      pop\n      jump\t// out\n        /* \"#utility.yul\":214:436   */\n    tag_12:\n        /* \"#utility.yul\":307:311   */\n      0x00\n        /* \"#utility.yul\":345:347   */\n      0x20\n        /* \"#utility.yul\":334:343   */\n      dup3\n        /* \"#utility.yul\":330:348   */\n      add\n        /* \"#utility.yul\":322:348   */\n      swap1\n      pop\n        /* \"#utility.yul\":358:429   */\n      tag_90\n        /* \"#utility.yul\":426:427   */\n      0x00\n        /* \"#utility.yul\":415:424   */\n      dup4\n        /* \"#utility.yul\":411:428   */\n      add\n        /* \"#utility.yul\":402:408   */\n      dup5\n        /* \"#utility.yul\":358:429   */\n      tag_61\n      jump\t// in\n    tag_90:\n        /* \"#utility.yul\":214:436   */\n      swap3\n      swap2\n      pop\n      pop\n      jump\t// out\n        /* \"#utility.yul\":523:640   */\n    tag_63:\n        /* \"#utility.yul\":632:633   */\n      0x00\n        /* \"#utility.yul\":629:630   */\n      0x00\n        /* \"#utility.yul\":622:634   */\n      revert\n        /* \"#utility.yul\":769:895   */\n    tag_65:\n        /* \"#utility.yul\":806:813   */\n      0x00\n        /* \"#utility.yul\":846:888   */\n      0xffffffffffffffffffffffffffffffffffffffff\n        /* \"#utility.yul\":839:844   */\n      dup3\n        /* \"#utility.yul\":835:889   */\n      and\n        /* \"#utility.yul\":824:889   */\n      swap1\n      pop\n        /* \"#utility.yul\":769:895   */\n      swap2\n      swap1\n      pop\n      jump\t// out\n        /* \"#utility.yul\":901:997   */\n    tag_66:\n        /* \"#utility.yul\":938:945   */\n      0x00\n        /* \"#utility.yul\":967:991   */\n      tag_96\n        /* \"#utility.yul\":985:990   */\n      dup3\n        /* \"#utility.yul\":967:991   */\n      tag_65\n      jump\t// in\n    tag_96:\n        /* \"#utility.yul\":956:991   */\n      swap1\n      pop\n        /* \"#utility.yul\":901:997   */\n      swap2\n      swap1\n      pop\n      jump\t// out\n        /* \"#utility.yul\":1003:1125   */\n    tag_67:\n        /* \"#utility.yul\":1076:1100   */\n      tag_98\n        /* \"#utility.yul\":1094:1099   */\n      dup2\n        /* \"#utility.yul\":1076:1100   */\n      tag_66\n      jump\t// in\n    tag_98:\n        /* \"#utility.yul\":1069:1074   */\n      dup2\n        /* \"#utility.yul\":1066:1101   */\n      eq\n        /* \"#utility.yul\":1056:1119   */\n      tag_99\n      jumpi\n        /* \"#utility.yul\":1115:1116   */\n      0x00\n        /* \"#utility.yul\":1112:1113   */\n      0x00\n        /* \"#utility.yul\":1105:1117   */\n      revert\n        /* \"#utility.yul\":1056:1119   */\n    tag_99:\n        /* \"#utility.yul\":1003:1125   */\n      pop\n      jump\t// out\n        /* \"#utility.yul\":1131:1270   */\n    tag_68:\n        /* \"#utility.yul\":1177:1182   */\n      0x00\n        /* \"#utility.yul\":1215:1221   */\n      dup2\n        /* \"#utility.yul\":1202:1222   */\n      calldataload\n        /* \"#utility.yul\":1193:1222   */\n      swap1\n      pop\n        /* \"#utility.yul\":1231:1264   */\n      tag_101\n        /* \"#utility.yul\":1258:1263   */\n      dup2\n        /* \"#utility.yul\":1231:1264   */\n      tag_67\n      jump\t// in\n    tag_101:\n        /* \"#utility.yul\":1131:1270   */\n      swap3\n      swap2\n      pop\n      pop\n      jump\t// out\n        /* \"#utility.yul\":1276:1605   */\n    tag_16:\n        /* \"#utility.yul\":1335:1341   */\n      0x00\n        /* \"#utility.yul\":1384:1386   */\n      0x20\n        /* \"#utility.yul\":1372:1381   */\n      dup3\n        /* \"#utility.yul\":1363:1370   */\n      dup5\n        /* \"#utility.yul\":1359:1382   */\n      sub\n        /* \"#utility.yul\":1355:1387   */\n      slt\n        /* \"#utility.yul\":1352:1471   */\n      iszero\n      tag_103\n      jumpi\n        /* \"#utility.yul\":1390:1469   */\n      tag_104\n      tag_63\n      jump\t// in\n    tag_104:\n        /* \"#utility.yul\":1352:1471   */\n    tag_103:\n        /* \"#utility.yul\":1510:1511   */\n      0x00\n        /* \"#utility.yul\":1535:1588   */\n      tag_105\n        /* \"#utility.yul\":1580:1587   */\n      dup5\n        /* \"#utility.yul\":1571:1577   */\n      dup3\n        /* \"#utility.yul\":1560:1569   */\n      dup6\n        /* \"#utility.yul\":1556:1578   */\n      add\n        /* \"#utility.yul\":1535:1588   */\n      tag_68\n      jump\t// in\n    tag_105:\n        /* \"#utility.yul\":1525:1588   */\n      swap2\n      pop\n        /* \"#utility.yul\":1481:1598   */\n      pop\n        /* \"#utility.yul\":1276:1605   */\n      swap3\n      swap2\n      pop\n      pop\n      jump\t// out\n        /* \"#utility.yul\":1611:1733   */\n    tag_69:\n        /* \"#utility.yul\":1684:1708   */\n      tag_107\n        /* \"#utility.yul\":1702:1707   */\n      dup2\n        /* \"#utility.yul\":1684:1708   */\n      tag_60\n      jump\t// in\n    tag_107:\n        /* \"#utility.yul\":1677:1682   */\n      dup2\n        /* \"#utility.yul\":1674:1709   */\n      eq\n        /* \"#utility.yul\":1664:1727   */\n      tag_108\n      jumpi\n        /* \"#utility.yul\":1723:1724   */\n      0x00\n        /* \"#utility.yul\":1720:1721   */\n      0x00\n        /* \"#utility.yul\":1713:1725   */\n      revert\n        /* \"#utility.yul\":1664:1727   */\n    tag_108:\n        /* \"#utility.yul\":1611:1733   */\n      pop\n      jump\t// out\n        /* \"#utility.yul\":1739:1878   */\n    tag_70:\n        /* \"#utility.yul\":1785:1790   */\n      0x00\n        /* \"#utility.yul\":1823:1829   */\n      dup2\n        /* \"#utility.yul\":1810:1830   */\n      calldataload\n        /* \"#utility.yul\":1801:1830   */\n      swap1\n      pop\n        /* \"#utility.yul\":1839:1872   */\n      tag_110\n        /* \"#utility.yul\":1866:1871   */\n      dup2\n        /* \"#utility.yul\":1839:1872   */\n      tag_69\n      jump\t// in\n    tag_110:\n        /* \"#utility.yul\":1739:1878   */\n      swap3\n      swap2\n      pop\n      pop\n      jump\t// out\n        /* \"#utility.yul\":1884:2213   */\n    tag_22:\n        /* \"#utility.yul\":1943:1949   */\n      0x00\n        /* \"#utility.yul\":1992:1994   */\n      0x20\n        /* \"#utility.yul\":1980:1989   */\n      dup3\n        /* \"#utility.yul\":1971:1978   */\n      dup5\n        /* \"#utility.yul\":1967:1990   */\n      sub\n        /* \"#utility.yul\":1963:1995   */\n      slt\n        /* \"#utility.yul\":1960:2079   */\n      iszero\n      tag_112\n      jumpi\n        /* \"#utility.yul\":1998:2077   */\n      tag_113\n      tag_63\n      jump\t// in\n    tag_113:\n        /* \"#utility.yul\":1960:2079   */\n    tag_112:\n        /* \"#utility.yul\":2118:2119   */\n      0x00\n        /* \"#utility.yul\":2143:2196   */\n      tag_114\n        /* \"#utility.yul\":2188:2195   */\n      dup5\n        /* \"#utility.yul\":2179:2185   */\n      dup3\n        /* \"#utility.yul\":2168:2177   */\n      dup6\n        /* \"#utility.yul\":2164:2186   */\n      add\n        /* \"#utility.yul\":2143:2196   */\n      tag_70\n      jump\t// in\n    tag_114:\n        /* \"#utility.yul\":2133:2196   */\n      swap2\n      pop\n        /* \"#utility.yul\":2089:2206   */\n      pop\n        /* \"#utility.yul\":1884:2213   */\n      swap3\n      swap2\n      pop\n      pop\n      jump\t// out\n        /* \"#utility.yul\":2219:2388   */\n    tag_71:\n        /* \"#utility.yul\":2303:2314   */\n      0x00\n        /* \"#utility.yul\":2337:2343   */\n      dup3\n        /* \"#utility.yul\":2332:2335   */\n      dup3\n        /* \"#utility.yul\":2325:2344   */\n      mstore\n        /* \"#utility.yul\":2377:2381   */\n      0x20\n        /* \"#utility.yul\":2372:2375   */\n      dup3\n        /* \"#utility.yul\":2368:2382   */\n      add\n        /* \"#utility.yul\":2353:2382   */\n      swap1\n      pop\n        /* \"#utility.yul\":2219:2388   */\n      swap3\n      swap2\n      pop\n      pop\n      jump\t// out\n        /* \"#utility.yul\":2394:2564   */\n    tag_72:\n        /* \"#utility.yul\":2534:2556   */\n      0x496e73756666696369656e742062616c616e6365000000000000000000000000\n        /* \"#utility.yul\":2530:2531   */\n      0x00\n        /* \"#utility.yul\":2522:2528   */\n      dup3\n        /* \"#utility.yul\":2518:2532   */\n      add\n        /* \"#utility.yul\":2511:2557   */\n      mstore\n        /* \"#utility.yul\":2394:2564   */\n      pop\n      jump\t// out\n        /* \"#utility.yul\":2570:2936   */\n    tag_73:\n        /* \"#utility.yul\":2712:2715   */\n      0x00\n        /* \"#utility.yul\":2733:2800   */\n      tag_118\n        /* \"#utility.yul\":2797:2799   */\n      0x14\n        /* \"#utility.yul\":2792:2795   */\n      dup4\n        /* \"#utility.yul\":2733:2800   */\n      tag_71\n      jump\t// in\n    tag_118:\n        /* \"#utility.yul\":2726:2800   */\n      swap2\n      pop\n        /* \"#utility.yul\":2809:2902   */\n      tag_119\n        /* \"#utility.yul\":2898:2901   */\n      dup3\n        /* \"#utility.yul\":2809:2902   */\n      tag_72\n      jump\t// in\n    tag_119:\n        /* \"#utility.yul\":2927:2929   */\n      0x20\n        /* \"#utility.yul\":2922:2925   */\n      dup3\n        /* \"#utility.yul\":2918:2930   */\n      add\n        /* \"#utility.yul\":2911:2930   */\n      swap1\n      pop\n        /* \"#utility.yul\":2570:2936   */\n      swap2\n      swap1\n      pop\n      jump\t// out\n        /* \"#utility.yul\":2942:3361   */\n    tag_40:\n        /* \"#utility.yul\":3108:3112   */\n      0x00\n        /* \"#utility.yul\":3146:3148   */\n      0x20\n        /* \"#utility.yul\":3135:3144   */\n      dup3\n        /* \"#utility.yul\":3131:3149   */\n      add\n        /* \"#utility.yul\":3123:3149   */\n      swap1\n      pop\n        /* \"#utility.yul\":3195:3204   */\n      dup2\n        /* \"#utility.yul\":3189:3193   */\n      dup2\n        /* \"#utility.yul\":3185:3205   */\n      sub\n        /* \"#utility.yul\":3181:3182   */\n      0x00\n        /* \"#utility.yul\":3170:3179   */\n      dup4\n        /* \"#utility.yul\":3166:3183   */\n      add\n        /* \"#utility.yul\":3159:3206   */\n      mstore\n        /* \"#utility.yul\":3223:3354   */\n      tag_121\n        /* \"#utility.yul\":3349:3353   */\n      dup2\n        /* \"#utility.yul\":3223:3354   */\n      tag_73\n      jump\t// in\n    tag_121:\n        /* \"#utility.yul\":3215:3354   */\n      swap1\n      pop\n        /* \"#utility.yul\":2942:3361   */\n      swap2\n      swap1\n      pop\n      jump\t// out\n        /* \"#utility.yul\":3367:3465   */\n    tag_74:\n        /* \"#utility.yul\":3418:3424   */\n      0x00\n        /* \"#utility.yul\":3452:3457   */\n      dup2\n        /* \"#utility.yul\":3446:3458   */\n      mload\n        /* \"#utility.yul\":3436:3458   */\n      swap1\n      pop\n        /* \"#utility.yul\":3367:3465   */\n      swap2\n      swap1\n      pop\n      jump\t// out\n        /* \"#utility.yul\":3471:3618   */\n    tag_75:\n        /* \"#utility.yul\":3572:3583   */\n      0x00\n        /* \"#utility.yul\":3609:3612   */\n      dup2\n        /* \"#utility.yul\":3594:3612   */\n      swap1\n      pop\n        /* \"#utility.yul\":3471:3618   */\n      swap3\n      swap2\n      pop\n      pop\n      jump\t// out\n        /* \"#utility.yul\":3624:3763   */\n    tag_76:\n        /* \"#utility.yul\":3713:3719   */\n      dup3\n        /* \"#utility.yul\":3708:3711   */\n      dup2\n        /* \"#utility.yul\":3703:3706   */\n      dup4\n        /* \"#utility.yul\":3697:3720   */\n      mcopy\n        /* \"#utility.yul\":3754:3755   */\n      0x00\n        /* \"#utility.yul\":3745:3751   */\n      dup4\n        /* \"#utility.yul\":3740:3743   */\n      dup4\n        /* \"#utility.yul\":3736:3752   */\n      add\n        /* \"#utility.yul\":3729:3756   */\n      mstore\n        /* \"#utility.yul\":3624:3763   */\n      pop\n      pop\n      pop\n      jump\t// out\n        /* \"#utility.yul\":3769:4155   */\n    tag_77:\n        /* \"#utility.yul\":3873:3876   */\n      0x00\n        /* \"#utility.yul\":3901:3939   */\n      tag_126\n        /* \"#utility.yul\":3933:3938   */\n      dup3\n        /* \"#utility.yul\":3901:3939   */\n      tag_74\n      jump\t// in\n    tag_126:\n        /* \"#utility.yul\":3955:4043   */\n      tag_127\n        /* \"#utility.yul\":4036:4042   */\n      dup2\n        /* \"#utility.yul\":4031:4034   */\n      dup6\n        /* \"#utility.yul\":3955:4043   */\n      tag_75\n      jump\t// in\n    tag_127:\n        /* \"#utility.yul\":3948:4043   */\n      swap4\n      pop\n        /* \"#utility.yul\":4052:4117   */\n      tag_128\n        /* \"#utility.yul\":4110:4116   */\n      dup2\n        /* \"#utility.yul\":4105:4108   */\n      dup6\n        /* \"#utility.yul\":4098:4102   */\n      0x20\n        /* \"#utility.yul\":4091:4096   */\n      dup7\n        /* \"#utility.yul\":4087:4103   */\n      add\n        /* \"#utility.yul\":4052:4117   */\n      tag_76\n      jump\t// in\n    tag_128:\n        /* \"#utility.yul\":4142:4148   */\n      dup1\n        /* \"#utility.yul\":4137:4140   */\n      dup5\n        /* \"#utility.yul\":4133:4149   */\n      add\n        /* \"#utility.yul\":4126:4149   */\n      swap2\n      pop\n        /* \"#utility.yul\":3877:4155   */\n      pop\n        /* \"#utility.yul\":3769:4155   */\n      swap3\n      swap2\n      pop\n      pop\n      jump\t// out\n        /* \"#utility.yul\":4161:4432   */\n    tag_42:\n        /* \"#utility.yul\":4291:4294   */\n      0x00\n        /* \"#utility.yul\":4313:4406   */\n      tag_130\n        /* \"#utility.yul\":4402:4405   */\n      dup3\n        /* \"#utility.yul\":4393:4399   */\n      dup5\n        /* \"#utility.yul\":4313:4406   */\n      tag_77\n      jump\t// in\n    tag_130:\n        /* \"#utility.yul\":4306:4406   */\n      swap2\n      pop\n        /* \"#utility.yul\":4423:4426   */\n      dup2\n        /* \"#utility.yul\":4416:4426   */\n      swap1\n      pop\n        /* \"#utility.yul\":4161:4432   */\n      swap3\n      swap2\n      pop\n      pop\n      jump\t// out\n        /* \"#utility.yul\":4438:4600   */\n    tag_78:\n        /* \"#utility.yul\":4578:4592   */\n      0x5472756c79205375636573730000000000000000000000000000000000000000\n        /* \"#utility.yul\":4574:4575   */\n      0x00\n        /* \"#utility.yul\":4566:4572   */\n      dup3\n        /* \"#utility.yul\":4562:4576   */\n      add\n        /* \"#utility.yul\":4555:4593   */\n      mstore\n        /* \"#utility.yul\":4438:4600   */\n      pop\n      jump\t// out\n        /* \"#utility.yul\":4606:4972   */\n    tag_79:\n        /* \"#utility.yul\":4748:4751   */\n      0x00\n        /* \"#utility.yul\":4769:4836   */\n      tag_133\n        /* \"#utility.yul\":4833:4835   */\n      0x0c\n        /* \"#utility.yul\":4828:4831   */\n      dup4\n        /* \"#utility.yul\":4769:4836   */\n      tag_71\n      jump\t// in\n    tag_133:\n        /* \"#utility.yul\":4762:4836   */\n      swap2\n      pop\n        /* \"#utility.yul\":4845:4938   */\n      tag_134\n        /* \"#utility.yul\":4934:4937   */\n      dup3\n        /* \"#utility.yul\":4845:4938   */\n      tag_78\n      jump\t// in\n    tag_134:\n        /* \"#utility.yul\":4963:4965   */\n      0x20\n        /* \"#utility.yul\":4958:4961   */\n      dup3\n        /* \"#utility.yul\":4954:4966   */\n      add\n        /* \"#utility.yul\":4947:4966   */\n      swap1\n      pop\n        /* \"#utility.yul\":4606:4972   */\n      swap2\n      swap1\n      pop\n      jump\t// out\n        /* \"#utility.yul\":4978:5507   */\n    tag_48:\n        /* \"#utility.yul\":5172:5176   */\n      0x00\n        /* \"#utility.yul\":5210:5212   */\n      0x40\n        /* \"#utility.yul\":5199:5208   */\n      dup3\n        /* \"#utility.yul\":5195:5213   */\n      add\n        /* \"#utility.yul\":5187:5213   */\n      swap1\n      pop\n        /* \"#utility.yul\":5259:5268   */\n      dup2\n        /* \"#utility.yul\":5253:5257   */\n      dup2\n        /* \"#utility.yul\":5249:5269   */\n      sub\n        /* \"#utility.yul\":5245:5246   */\n      0x00\n        /* \"#utility.yul\":5234:5243   */\n      dup4\n        /* \"#utility.yul\":5230:5247   */\n      add\n        /* \"#utility.yul\":5223:5270   */\n      mstore\n        /* \"#utility.yul\":5287:5418   */\n      tag_136\n        /* \"#utility.yul\":5413:5417   */\n      dup2\n        /* \"#utility.yul\":5287:5418   */\n      tag_79\n      jump\t// in\n    tag_136:\n        /* \"#utility.yul\":5279:5418   */\n      swap1\n      pop\n        /* \"#utility.yul\":5428:5500   */\n      tag_137\n        /* \"#utility.yul\":5496:5498   */\n      0x20\n        /* \"#utility.yul\":5485:5494   */\n      dup4\n        /* \"#utility.yul\":5481:5499   */\n      add\n        /* \"#utility.yul\":5472:5478   */\n      dup5\n        /* \"#utility.yul\":5428:5500   */\n      tag_61\n      jump\t// in\n    tag_137:\n        /* \"#utility.yul\":4978:5507   */\n      swap3\n      swap2\n      pop\n      pop\n      jump\t// out\n        /* \"#utility.yul\":5513:5676   */\n    tag_80:\n        /* \"#utility.yul\":5653:5668   */\n      0x4261646c79204661696c75726500000000000000000000000000000000000000\n        /* \"#utility.yul\":5649:5650   */\n      0x00\n        /* \"#utility.yul\":5641:5647   */\n      dup3\n        /* \"#utility.yul\":5637:5651   */\n      add\n        /* \"#utility.yul\":5630:5669   */\n      mstore\n        /* \"#utility.yul\":5513:5676   */\n      pop\n      jump\t// out\n        /* \"#utility.yul\":5682:6048   */\n    tag_81:\n        /* \"#utility.yul\":5824:5827   */\n      0x00\n        /* \"#utility.yul\":5845:5912   */\n      tag_140\n        /* \"#utility.yul\":5909:5911   */\n      0x0d\n        /* \"#utility.yul\":5904:5907   */\n      dup4\n        /* \"#utility.yul\":5845:5912   */\n      tag_71\n      jump\t// in\n    tag_140:\n        /* \"#utility.yul\":5838:5912   */\n      swap2\n      pop\n        /* \"#utility.yul\":5921:6014   */\n      tag_141\n        /* \"#utility.yul\":6010:6013   */\n      dup3\n        /* \"#utility.yul\":5921:6014   */\n      tag_80\n      jump\t// in\n    tag_141:\n        /* \"#utility.yul\":6039:6041   */\n      0x20\n        /* \"#utility.yul\":6034:6037   */\n      dup3\n        /* \"#utility.yul\":6030:6042   */\n      add\n        /* \"#utility.yul\":6023:6042   */\n      swap1\n      pop\n        /* \"#utility.yul\":5682:6048   */\n      swap2\n      swap1\n      pop\n      jump\t// out\n        /* \"#utility.yul\":6054:6583   */\n    tag_51:\n        /* \"#utility.yul\":6248:6252   */\n      0x00\n        /* \"#utility.yul\":6286:6288   */\n      0x40\n        /* \"#utility.yul\":6275:6284   */\n      dup3\n        /* \"#utility.yul\":6271:6289   */\n      add\n        /* \"#utility.yul\":6263:6289   */\n      swap1\n      pop\n        /* \"#utility.yul\":6335:6344   */\n      dup2\n        /* \"#utility.yul\":6329:6333   */\n      dup2\n        /* \"#utility.yul\":6325:6345   */\n      sub\n        /* \"#utility.yul\":6321:6322   */\n      0x00\n        /* \"#utility.yul\":6310:6319   */\n      dup4\n        /* \"#utility.yul\":6306:6323   */\n      add\n        /* \"#utility.yul\":6299:6346   */\n      mstore\n        /* \"#utility.yul\":6363:6494   */\n      tag_143\n        /* \"#utility.yul\":6489:6493   */\n      dup2\n        /* \"#utility.yul\":6363:6494   */\n      tag_81\n      jump\t// in\n    tag_143:\n        /* \"#utility.yul\":6355:6494   */\n      swap1\n      pop\n        /* \"#utility.yul\":6504:6576   */\n      tag_144\n        /* \"#utility.yul\":6572:6574   */\n      0x20\n        /* \"#utility.yul\":6561:6570   */\n      dup4\n        /* \"#utility.yul\":6557:6575   */\n      add\n        /* \"#utility.yul\":6548:6554   */\n      dup5\n        /* \"#utility.yul\":6504:6576   */\n      tag_61\n      jump\t// in\n    tag_144:\n        /* \"#utility.yul\":6054:6583   */\n      swap3\n      swap2\n      pop\n      pop\n      jump\t// out\n        /* \"#utility.yul\":6589:6769   */\n    tag_82:\n        /* \"#utility.yul\":6637:6714   */\n      0x4e487b7100000000000000000000000000000000000000000000000000000000\n        /* \"#utility.yul\":6634:6635   */\n      0x00\n        /* \"#utility.yul\":6627:6715   */\n      mstore\n        /* \"#utility.yul\":6734:6738   */\n      0x11\n        /* \"#utility.yul\":6731:6732   */\n      0x04\n        /* \"#utility.yul\":6724:6739   */\n      mstore\n        /* \"#utility.yul\":6758:6762   */\n      0x24\n        /* \"#utility.yul\":6755:6756   */\n      0x00\n        /* \"#utility.yul\":6748:6763   */\n      revert\n        /* \"#utility.yul\":6775:6969   */\n    tag_53:\n        /* \"#utility.yul\":6815:6819   */\n      0x00\n        /* \"#utility.yul\":6835:6855   */\n      tag_147\n        /* \"#utility.yul\":6853:6854   */\n      dup3\n        /* \"#utility.yul\":6835:6855   */\n      tag_60\n      jump\t// in\n    tag_147:\n        /* \"#utility.yul\":6830:6855   */\n      swap2\n      pop\n        /* \"#utility.yul\":6869:6889   */\n      tag_148\n        /* \"#utility.yul\":6887:6888   */\n      dup4\n        /* \"#utility.yul\":6869:6889   */\n      tag_60\n      jump\t// in\n    tag_148:\n        /* \"#utility.yul\":6864:6889   */\n      swap3\n      pop\n        /* \"#utility.yul\":6913:6914   */\n      dup3\n        /* \"#utility.yul\":6910:6911   */\n      dup3\n        /* \"#utility.yul\":6906:6915   */\n      sub\n        /* \"#utility.yul\":6898:6915   */\n      swap1\n      pop\n        /* \"#utility.yul\":6937:6938   */\n      dup2\n        /* \"#utility.yul\":6931:6935   */\n      dup2\n        /* \"#utility.yul\":6928:6939   */\n      gt\n        /* \"#utility.yul\":6925:6962   */\n      iszero\n      tag_149\n      jumpi\n        /* \"#utility.yul\":6942:6960   */\n      tag_150\n      tag_82\n      jump\t// in\n    tag_150:\n        /* \"#utility.yul\":6925:6962   */\n    tag_149:\n        /* \"#utility.yul\":6775:6969   */\n      swap3\n      swap2\n      pop\n      pop\n      jump\t// out\n        /* \"#utility.yul\":6975:7134   */\n    tag_83:\n        /* \"#utility.yul\":7115:7126   */\n      0x6465706f73697465640000000000000000000000000000000000000000000000\n        /* \"#utility.yul\":7111:7112   */\n      0x00\n        /* \"#utility.yul\":7103:7109   */\n      dup3\n        /* \"#utility.yul\":7099:7113   */\n      add\n        /* \"#utility.yul\":7092:7127   */\n      mstore\n        /* \"#utility.yul\":6975:7134   */\n      pop\n      jump\t// out\n        /* \"#utility.yul\":7140:7505   */\n    tag_84:\n        /* \"#utility.yul\":7282:7285   */\n      0x00\n        /* \"#utility.yul\":7303:7369   */\n      tag_153\n        /* \"#utility.yul\":7367:7368   */\n      0x09\n        /* \"#utility.yul\":7362:7365   */\n      dup4\n        /* \"#utility.yul\":7303:7369   */\n      tag_71\n      jump\t// in\n    tag_153:\n        /* \"#utility.yul\":7296:7369   */\n      swap2\n      pop\n        /* \"#utility.yul\":7378:7471   */\n      tag_154\n        /* \"#utility.yul\":7467:7470   */\n      dup3\n        /* \"#utility.yul\":7378:7471   */\n      tag_83\n      jump\t// in\n    tag_154:\n        /* \"#utility.yul\":7496:7498   */\n      0x20\n        /* \"#utility.yul\":7491:7494   */\n      dup3\n        /* \"#utility.yul\":7487:7499   */\n      add\n        /* \"#utility.yul\":7480:7499   */\n      swap1\n      pop\n        /* \"#utility.yul\":7140:7505   */\n      swap2\n      swap1\n      pop\n      jump\t// out\n        /* \"#utility.yul\":7511:8040   */\n    tag_56:\n        /* \"#utility.yul\":7705:7709   */\n      0x00\n        /* \"#utility.yul\":7743:7745   */\n      0x40\n        /* \"#utility.yul\":7732:7741   */\n      dup3\n        /* \"#utility.yul\":7728:7746   */\n      add\n        /* \"#utility.yul\":7720:7746   */\n      swap1\n      pop\n        /* \"#utility.yul\":7792:7801   */\n      dup2\n        /* \"#utility.yul\":7786:7790   */\n      dup2\n        /* \"#utility.yul\":7782:7802   */\n      sub\n        /* \"#utility.yul\":7778:7779   */\n      0x00\n        /* \"#utility.yul\":7767:7776   */\n      dup4\n        /* \"#utility.yul\":7763:7780   */\n      add\n        /* \"#utility.yul\":7756:7803   */\n      mstore\n        /* \"#utility.yul\":7820:7951   */\n      tag_156\n        /* \"#utility.yul\":7946:7950   */\n      dup2\n        /* \"#utility.yul\":7820:7951   */\n      tag_84\n      jump\t// in\n    tag_156:\n        /* \"#utility.yul\":7812:7951   */\n      swap1\n      pop\n        /* \"#utility.yul\":7961:8033   */\n      tag_157\n        /* \"#utility.yul\":8029:8031   */\n      0x20\n        /* \"#utility.yul\":8018:8027   */\n      dup4\n        /* \"#utility.yul\":8014:8032   */\n      add\n        /* \"#utility.yul\":8005:8011   */\n      dup5\n        /* \"#utility.yul\":7961:8033   */\n      tag_61\n      jump\t// in\n    tag_157:\n        /* \"#utility.yul\":7511:8040   */\n      swap3\n      swap2\n      pop\n      pop\n      jump\t// out\n        /* \"#utility.yul\":8046:8237   */\n    tag_58:\n        /* \"#utility.yul\":8086:8089   */\n      0x00\n        /* \"#utility.yul\":8105:8125   */\n      tag_159\n        /* \"#utility.yul\":8123:8124   */\n      dup3\n        /* \"#utility.yul\":8105:8125   */\n      tag_60\n      jump\t// in\n    tag_159:\n        /* \"#utility.yul\":8100:8125   */\n      swap2\n      pop\n        /* \"#utility.yul\":8139:8159   */\n      tag_160\n        /* \"#utility.yul\":8157:8158   */\n      dup4\n        /* \"#utility.yul\":8139:8159   */\n      tag_60\n      jump\t// in\n    tag_160:\n        /* \"#utility.yul\":8134:8159   */\n      swap3\n      pop\n        /* \"#utility.yul\":8182:8183   */\n      dup3\n        /* \"#utility.yul\":8179:8180   */\n      dup3\n        /* \"#utility.yul\":8175:8184   */\n      add\n        /* \"#utility.yul\":8168:8184   */\n      swap1\n      pop\n        /* \"#utility.yul\":8203:8206   */\n      dup1\n        /* \"#utility.yul\":8200:8201   */\n      dup3\n        /* \"#utility.yul\":8197:8207   */\n      gt\n        /* \"#utility.yul\":8194:8230   */\n      iszero\n      tag_161\n      jumpi\n        /* \"#utility.yul\":8210:8228   */\n      tag_162\n      tag_82\n      jump\t// in\n    tag_162:\n        /* \"#utility.yul\":8194:8230   */\n    tag_161:\n        /* \"#utility.yul\":8046:8237   */\n      swap3\n      swap2\n      pop\n      pop\n      jump\t// out\n\n    auxdata: 0xa2646970667358221220afcaeb903b98ca54ee23e182251a7ed1a1cb8c0bbed877b422c36f9ea95fcd5464736f6c634300081c0033\n}\n",
				"bytecode": {
					"linkReferences": {},
					"object": "6080604052348015600e575f5ffd5b506108f38061001c5f395ff3fe608060405260043610610054575f3560e01c80630ef678871461005857806327e235e3146100825780632e1a7d4d146100be578063673402e5146100e6578063b6b55f2514610110578063f8b2cb4f1461012c575b5f5ffd5b348015610063575f5ffd5b5061006c610168565b60405161007991906104f1565b60405180910390f35b34801561008d575f5ffd5b506100a860048036038101906100a39190610568565b6101ac565b6040516100b591906104f1565b60405180910390f35b3480156100c9575f5ffd5b506100e460048036038101906100df91906105bd565b6101c1565b005b3480156100f1575f5ffd5b506100fa610401565b60405161010791906104f1565b60405180910390f35b61012a600480360381019061012591906105bd565b610406565b005b348015610137575f5ffd5b50610152600480360381019061014d9190610568565b610493565b60405161015f91906104f1565b60405180910390f35b5f60015f3373ffffffffffffffffffffffffffffffffffffffff1673ffffffffffffffffffffffffffffffffffffffff1681526020019081526020015f2054905090565b6001602052805f5260405f205f915090505481565b8060015f3373ffffffffffffffffffffffffffffffffffffffff1673ffffffffffffffffffffffffffffffffffffffff1681526020019081526020015f20541015610241576040517f08c379a000000000000000000000000000000000000000000000000000000000815260040161023890610642565b60405180910390fd5b5f6040516024016040516020818303038152906040527f15667403000000000000000000000000000000000000000000000000000000007bffffffffffffffffffffffffffffffffffffffffffffffffffffffff19166020820180517bffffffffffffffffffffffffffffffffffffffffffffffffffffffff838183161783525050505090505f3373ffffffffffffffffffffffffffffffffffffffff16826040516102ed91906106b2565b5f604051808303815f865af19150503d805f8114610326576040519150601f19603f3d011682016040523d82523d5f602084013e61032b565b606091505b505090508015610371577f69a6cf7852823a03f1e0278fa944045502fae9fb546695dbf1f50521651a8b73836040516103649190610712565b60405180910390a16103a9565b7f69a6cf7852823a03f1e0278fa944045502fae9fb546695dbf1f50521651a8b73836040516103a09190610788565b60405180910390a15b8260015f3373ffffffffffffffffffffffffffffffffffffffff1673ffffffffffffffffffffffffffffffffffffffff1681526020019081526020015f205f8282546103f591906107e1565b92505081905550505050565b5f5481565b7f69a6cf7852823a03f1e0278fa944045502fae9fb546695dbf1f50521651a8b7381604051610435919061085e565b60405180910390a18060015f3373ffffffffffffffffffffffffffffffffffffffff1673ffffffffffffffffffffffffffffffffffffffff1681526020019081526020015f205f828254610489919061088a565b9250508190555050565b5f60015f8373ffffffffffffffffffffffffffffffffffffffff1673ffffffffffffffffffffffffffffffffffffffff1681526020019081526020015f20549050919050565b5f819050919050565b6104eb816104d9565b82525050565b5f6020820190506105045f8301846104e2565b92915050565b5f5ffd5b5f73ffffffffffffffffffffffffffffffffffffffff82169050919050565b5f6105378261050e565b9050919050565b6105478161052d565b8114610551575f5ffd5b50565b5f813590506105628161053e565b92915050565b5f6020828403121561057d5761057c61050a565b5b5f61058a84828501610554565b91505092915050565b61059c816104d9565b81146105a6575f5ffd5b50565b5f813590506105b781610593565b92915050565b5f602082840312156105d2576105d161050a565b5b5f6105df848285016105a9565b91505092915050565b5f82825260208201905092915050565b7f496e73756666696369656e742062616c616e63650000000000000000000000005f82015250565b5f61062c6014836105e8565b9150610637826105f8565b602082019050919050565b5f6020820190508181035f83015261065981610620565b9050919050565b5f81519050919050565b5f81905092915050565b8281835e5f83830152505050565b5f61068c82610660565b610696818561066a565b93506106a6818560208601610674565b80840191505092915050565b5f6106bd8284610682565b915081905092915050565b7f5472756c792053756365737300000000000000000000000000000000000000005f82015250565b5f6106fc600c836105e8565b9150610707826106c8565b602082019050919050565b5f6040820190508181035f830152610729816106f0565b905061073860208301846104e2565b92915050565b7f4261646c79204661696c757265000000000000000000000000000000000000005f82015250565b5f610772600d836105e8565b915061077d8261073e565b602082019050919050565b5f6040820190508181035f83015261079f81610766565b90506107ae60208301846104e2565b92915050565b7f4e487b71000000000000000000000000000000000000000000000000000000005f52601160045260245ffd5b5f6107eb826104d9565b91506107f6836104d9565b925082820390508181111561080e5761080d6107b4565b5b92915050565b7f6465706f736974656400000000000000000000000000000000000000000000005f82015250565b5f6108486009836105e8565b915061085382610814565b602082019050919050565b5f6040820190508181035f8301526108758161083c565b905061088460208301846104e2565b92915050565b5f610894826104d9565b915061089f836104d9565b92508282019050808211156108b7576108b66107b4565b5b9291505056fea2646970667358221220afcaeb903b98ca54ee23e182251a7ed1a1cb8c0bbed877b422c36f9ea95fcd5464736f6c634300081c0033",
					"opcodes": "PUSH1 0x80 PUSH1 0x40 MSTORE CALLVALUE DUP1 ISZERO PUSH1 0xE JUMPI PUSH0 PUSH0 REVERT JUMPDEST POP PUSH2 0x8F3 DUP1 PUSH2 0x1C PUSH0 CODECOPY PUSH0 RETURN INVALID PUSH1 0x80 PUSH1 0x40 MSTORE PUSH1 0x4 CALLDATASIZE LT PUSH2 0x54 JUMPI PUSH0 CALLDATALOAD PUSH1 0xE0 SHR DUP1 PUSH4 0xEF67887 EQ PUSH2 0x58 JUMPI DUP1 PUSH4 0x27E235E3 EQ PUSH2 0x82 JUMPI DUP1 PUSH4 0x2E1A7D4D EQ PUSH2 0xBE JUMPI DUP1 PUSH4 0x673402E5 EQ PUSH2 0xE6 JUMPI DUP1 PUSH4 0xB6B55F25 EQ PUSH2 0x110 JUMPI DUP1 PUSH4 0xF8B2CB4F EQ PUSH2 0x12C JUMPI JUMPDEST PUSH0 PUSH0 REVERT JUMPDEST CALLVALUE DUP1 ISZERO PUSH2 0x63 JUMPI PUSH0 PUSH0 REVERT JUMPDEST POP PUSH2 0x6C PUSH2 0x168 JUMP JUMPDEST PUSH1 0x40 MLOAD PUSH2 0x79 SWAP2 SWAP1 PUSH2 0x4F1 JUMP JUMPDEST PUSH1 0x40 MLOAD DUP1 SWAP2 SUB SWAP1 RETURN JUMPDEST CALLVALUE DUP1 ISZERO PUSH2 0x8D JUMPI PUSH0 PUSH0 REVERT JUMPDEST POP PUSH2 0xA8 PUSH1 0x4 DUP1 CALLDATASIZE SUB DUP2 ADD SWAP1 PUSH2 0xA3 SWAP2 SWAP1 PUSH2 0x568 JUMP JUMPDEST PUSH2 0x1AC JUMP JUMPDEST PUSH1 0x40 MLOAD PUSH2 0xB5 SWAP2 SWAP1 PUSH2 0x4F1 JUMP JUMPDEST PUSH1 0x40 MLOAD DUP1 SWAP2 SUB SWAP1 RETURN JUMPDEST CALLVALUE DUP1 ISZERO PUSH2 0xC9 JUMPI PUSH0 PUSH0 REVERT JUMPDEST POP PUSH2 0xE4 PUSH1 0x4 DUP1 CALLDATASIZE SUB DUP2 ADD SWAP1 PUSH2 0xDF SWAP2 SWAP1 PUSH2 0x5BD JUMP JUMPDEST PUSH2 0x1C1 JUMP JUMPDEST STOP JUMPDEST CALLVALUE DUP1 ISZERO PUSH2 0xF1 JUMPI PUSH0 PUSH0 REVERT JUMPDEST POP PUSH2 0xFA PUSH2 0x401 JUMP JUMPDEST PUSH1 0x40 MLOAD PUSH2 0x107 SWAP2 SWAP1 PUSH2 0x4F1 JUMP JUMPDEST PUSH1 0x40 MLOAD DUP1 SWAP2 SUB SWAP1 RETURN JUMPDEST PUSH2 0x12A PUSH1 0x4 DUP1 CALLDATASIZE SUB DUP2 ADD SWAP1 PUSH2 0x125 SWAP2 SWAP1 PUSH2 0x5BD JUMP JUMPDEST PUSH2 0x406 JUMP JUMPDEST STOP JUMPDEST CALLVALUE DUP1 ISZERO PUSH2 0x137 JUMPI PUSH0 PUSH0 REVERT JUMPDEST POP PUSH2 0x152 PUSH1 0x4 DUP1 CALLDATASIZE SUB DUP2 ADD SWAP1 PUSH2 0x14D SWAP2 SWAP1 PUSH2 0x568 JUMP JUMPDEST PUSH2 0x493 JUMP JUMPDEST PUSH1 0x40 MLOAD PUSH2 0x15F SWAP2 SWAP1 PUSH2 0x4F1 JUMP JUMPDEST PUSH1 0x40 MLOAD DUP1 SWAP2 SUB SWAP1 RETURN JUMPDEST PUSH0 PUSH1 0x1 PUSH0 CALLER PUSH20 0xFFFFFFFFFFFFFFFFFFFFFFFFFFFFFFFFFFFFFFFF AND PUSH20 0xFFFFFFFFFFFFFFFFFFFFFFFFFFFFFFFFFFFFFFFF AND DUP2 MSTORE PUSH1 0x20 ADD SWAP1 DUP2 MSTORE PUSH1 0x20 ADD PUSH0 KECCAK256 SLOAD SWAP1 POP SWAP1 JUMP JUMPDEST PUSH1 0x1 PUSH1 0x20 MSTORE DUP1 PUSH0 MSTORE PUSH1 0x40 PUSH0 KECCAK256 PUSH0 SWAP2 POP SWAP1 POP SLOAD DUP2 JUMP JUMPDEST DUP1 PUSH1 0x1 PUSH0 CALLER PUSH20 0xFFFFFFFFFFFFFFFFFFFFFFFFFFFFFFFFFFFFFFFF AND PUSH20 0xFFFFFFFFFFFFFFFFFFFFFFFFFFFFFFFFFFFFFFFF AND DUP2 MSTORE PUSH1 0x20 ADD SWAP1 DUP2 MSTORE PUSH1 0x20 ADD PUSH0 KECCAK256 SLOAD LT ISZERO PUSH2 0x241 JUMPI PUSH1 0x40 MLOAD PUSH32 0x8C379A000000000000000000000000000000000000000000000000000000000 DUP2 MSTORE PUSH1 0x4 ADD PUSH2 0x238 SWAP1 PUSH2 0x642 JUMP JUMPDEST PUSH1 0x40 MLOAD DUP1 SWAP2 SUB SWAP1 REVERT JUMPDEST PUSH0 PUSH1 0x40 MLOAD PUSH1 0x24 ADD PUSH1 0x40 MLOAD PUSH1 0x20 DUP2 DUP4 SUB SUB DUP2 MSTORE SWAP1 PUSH1 0x40 MSTORE PUSH32 0x1566740300000000000000000000000000000000000000000000000000000000 PUSH28 0xFFFFFFFFFFFFFFFFFFFFFFFFFFFFFFFFFFFFFFFFFFFFFFFFFFFFFFFF NOT AND PUSH1 0x20 DUP3 ADD DUP1 MLOAD PUSH28 0xFFFFFFFFFFFFFFFFFFFFFFFFFFFFFFFFFFFFFFFFFFFFFFFFFFFFFFFF DUP4 DUP2 DUP4 AND OR DUP4 MSTORE POP POP POP POP SWAP1 POP PUSH0 CALLER PUSH20 0xFFFFFFFFFFFFFFFFFFFFFFFFFFFFFFFFFFFFFFFF AND DUP3 PUSH1 0x40 MLOAD PUSH2 0x2ED SWAP2 SWAP1 PUSH2 0x6B2 JUMP JUMPDEST PUSH0 PUSH1 0x40 MLOAD DUP1 DUP4 SUB DUP2 PUSH0 DUP7 GAS CALL SWAP2 POP POP RETURNDATASIZE DUP1 PUSH0 DUP2 EQ PUSH2 0x326 JUMPI PUSH1 0x40 MLOAD SWAP2 POP PUSH1 0x1F NOT PUSH1 0x3F RETURNDATASIZE ADD AND DUP3 ADD PUSH1 0x40 MSTORE RETURNDATASIZE DUP3 MSTORE RETURNDATASIZE PUSH0 PUSH1 0x20 DUP5 ADD RETURNDATACOPY PUSH2 0x32B JUMP JUMPDEST PUSH1 0x60 SWAP2 POP JUMPDEST POP POP SWAP1 POP DUP1 ISZERO PUSH2 0x371 JUMPI PUSH32 0x69A6CF7852823A03F1E0278FA944045502FAE9FB546695DBF1F50521651A8B73 DUP4 PUSH1 0x40 MLOAD PUSH2 0x364 SWAP2 SWAP1 PUSH2 0x712 JUMP JUMPDEST PUSH1 0x40 MLOAD DUP1 SWAP2 SUB SWAP1 LOG1 PUSH2 0x3A9 JUMP JUMPDEST PUSH32 0x69A6CF7852823A03F1E0278FA944045502FAE9FB546695DBF1F50521651A8B73 DUP4 PUSH1 0x40 MLOAD PUSH2 0x3A0 SWAP2 SWAP1 PUSH2 0x788 JUMP JUMPDEST PUSH1 0x40 MLOAD DUP1 SWAP2 SUB SWAP1 LOG1 JUMPDEST DUP3 PUSH1 0x1 PUSH0 CALLER PUSH20 0xFFFFFFFFFFFFFFFFFFFFFFFFFFFFFFFFFFFFFFFF AND PUSH20 0xFFFFFFFFFFFFFFFFFFFFFFFFFFFFFFFFFFFFFFFF AND DUP2 MSTORE PUSH1 0x20 ADD SWAP1 DUP2 MSTORE PUSH1 0x20 ADD PUSH0 KECCAK256 PUSH0 DUP3 DUP3 SLOAD PUSH2 0x3F5 SWAP2 SWAP1 PUSH2 0x7E1 JUMP JUMPDEST SWAP3 POP POP DUP2 SWAP1 SSTORE POP POP POP POP JUMP JUMPDEST PUSH0 SLOAD DUP2 JUMP JUMPDEST PUSH32 0x69A6CF7852823A03F1E0278FA944045502FAE9FB546695DBF1F50521651A8B73 DUP2 PUSH1 0x40 MLOAD PUSH2 0x435 SWAP2 SWAP1 PUSH2 0x85E JUMP JUMPDEST PUSH1 0x40 MLOAD DUP1 SWAP2 SUB SWAP1 LOG1 DUP1 PUSH1 0x1 PUSH0 CALLER PUSH20 0xFFFFFFFFFFFFFFFFFFFFFFFFFFFFFFFFFFFFFFFF AND PUSH20 0xFFFFFFFFFFFFFFFFFFFFFFFFFFFFFFFFFFFFFFFF AND DUP2 MSTORE PUSH1 0x20 ADD SWAP1 DUP2 MSTORE PUSH1 0x20 ADD PUSH0 KECCAK256 PUSH0 DUP3 DUP3 SLOAD PUSH2 0x489 SWAP2 SWAP1 PUSH2 0x88A JUMP JUMPDEST SWAP3 POP POP DUP2 SWAP1 SSTORE POP POP JUMP JUMPDEST PUSH0 PUSH1 0x1 PUSH0 DUP4 PUSH20 0xFFFFFFFFFFFFFFFFFFFFFFFFFFFFFFFFFFFFFFFF AND PUSH20 0xFFFFFFFFFFFFFFFFFFFFFFFFFFFFFFFFFFFFFFFF AND DUP2 MSTORE PUSH1 0x20 ADD SWAP1 DUP2 MSTORE PUSH1 0x20 ADD PUSH0 KECCAK256 SLOAD SWAP1 POP SWAP2 SWAP1 POP JUMP JUMPDEST PUSH0 DUP2 SWAP1 POP SWAP2 SWAP1 POP JUMP JUMPDEST PUSH2 0x4EB DUP2 PUSH2 0x4D9 JUMP JUMPDEST DUP3 MSTORE POP POP JUMP JUMPDEST PUSH0 PUSH1 0x20 DUP3 ADD SWAP1 POP PUSH2 0x504 PUSH0 DUP4 ADD DUP5 PUSH2 0x4E2 JUMP JUMPDEST SWAP3 SWAP2 POP POP JUMP JUMPDEST PUSH0 PUSH0 REVERT JUMPDEST PUSH0 PUSH20 0xFFFFFFFFFFFFFFFFFFFFFFFFFFFFFFFFFFFFFFFF DUP3 AND SWAP1 POP SWAP2 SWAP1 POP JUMP JUMPDEST PUSH0 PUSH2 0x537 DUP3 PUSH2 0x50E JUMP JUMPDEST SWAP1 POP SWAP2 SWAP1 POP JUMP JUMPDEST PUSH2 0x547 DUP2 PUSH2 0x52D JUMP JUMPDEST DUP2 EQ PUSH2 0x551 JUMPI PUSH0 PUSH0 REVERT JUMPDEST POP JUMP JUMPDEST PUSH0 DUP2 CALLDATALOAD SWAP1 POP PUSH2 0x562 DUP2 PUSH2 0x53E JUMP JUMPDEST SWAP3 SWAP2 POP POP JUMP JUMPDEST PUSH0 PUSH1 0x20 DUP3 DUP5 SUB SLT ISZERO PUSH2 0x57D JUMPI PUSH2 0x57C PUSH2 0x50A JUMP JUMPDEST JUMPDEST PUSH0 PUSH2 0x58A DUP5 DUP3 DUP6 ADD PUSH2 0x554 JUMP JUMPDEST SWAP2 POP POP SWAP3 SWAP2 POP POP JUMP JUMPDEST PUSH2 0x59C DUP2 PUSH2 0x4D9 JUMP JUMPDEST DUP2 EQ PUSH2 0x5A6 JUMPI PUSH0 PUSH0 REVERT JUMPDEST POP JUMP JUMPDEST PUSH0 DUP2 CALLDATALOAD SWAP1 POP PUSH2 0x5B7 DUP2 PUSH2 0x593 JUMP JUMPDEST SWAP3 SWAP2 POP POP JUMP JUMPDEST PUSH0 PUSH1 0x20 DUP3 DUP5 SUB SLT ISZERO PUSH2 0x5D2 JUMPI PUSH2 0x5D1 PUSH2 0x50A JUMP JUMPDEST JUMPDEST PUSH0 PUSH2 0x5DF DUP5 DUP3 DUP6 ADD PUSH2 0x5A9 JUMP JUMPDEST SWAP2 POP POP SWAP3 SWAP2 POP POP JUMP JUMPDEST PUSH0 DUP3 DUP3 MSTORE PUSH1 0x20 DUP3 ADD SWAP1 POP SWAP3 SWAP2 POP POP JUMP JUMPDEST PUSH32 0x496E73756666696369656E742062616C616E6365000000000000000000000000 PUSH0 DUP3 ADD MSTORE POP JUMP JUMPDEST PUSH0 PUSH2 0x62C PUSH1 0x14 DUP4 PUSH2 0x5E8 JUMP JUMPDEST SWAP2 POP PUSH2 0x637 DUP3 PUSH2 0x5F8 JUMP JUMPDEST PUSH1 0x20 DUP3 ADD SWAP1 POP SWAP2 SWAP1 POP JUMP JUMPDEST PUSH0 PUSH1 0x20 DUP3 ADD SWAP1 POP DUP2 DUP2 SUB PUSH0 DUP4 ADD MSTORE PUSH2 0x659 DUP2 PUSH2 0x620 JUMP JUMPDEST SWAP1 POP SWAP2 SWAP1 POP JUMP JUMPDEST PUSH0 DUP2 MLOAD SWAP1 POP SWAP2 SWAP1 POP JUMP JUMPDEST PUSH0 DUP2 SWAP1 POP SWAP3 SWAP2 POP POP JUMP JUMPDEST DUP3 DUP2 DUP4 MCOPY PUSH0 DUP4 DUP4 ADD MSTORE POP POP POP JUMP JUMPDEST PUSH0 PUSH2 0x68C DUP3 PUSH2 0x660 JUMP JUMPDEST PUSH2 0x696 DUP2 DUP6 PUSH2 0x66A JUMP JUMPDEST SWAP4 POP PUSH2 0x6A6 DUP2 DUP6 PUSH1 0x20 DUP7 ADD PUSH2 0x674 JUMP JUMPDEST DUP1 DUP5 ADD SWAP2 POP POP SWAP3 SWAP2 POP POP JUMP JUMPDEST PUSH0 PUSH2 0x6BD DUP3 DUP5 PUSH2 0x682 JUMP JUMPDEST SWAP2 POP DUP2 SWAP1 POP SWAP3 SWAP2 POP POP JUMP JUMPDEST PUSH32 0x5472756C79205375636573730000000000000000000000000000000000000000 PUSH0 DUP3 ADD MSTORE POP JUMP JUMPDEST PUSH0 PUSH2 0x6FC PUSH1 0xC DUP4 PUSH2 0x5E8 JUMP JUMPDEST SWAP2 POP PUSH2 0x707 DUP3 PUSH2 0x6C8 JUMP JUMPDEST PUSH1 0x20 DUP3 ADD SWAP1 POP SWAP2 SWAP1 POP JUMP JUMPDEST PUSH0 PUSH1 0x40 DUP3 ADD SWAP1 POP DUP2 DUP2 SUB PUSH0 DUP4 ADD MSTORE PUSH2 0x729 DUP2 PUSH2 0x6F0 JUMP JUMPDEST SWAP1 POP PUSH2 0x738 PUSH1 0x20 DUP4 ADD DUP5 PUSH2 0x4E2 JUMP JUMPDEST SWAP3 SWAP2 POP POP JUMP JUMPDEST PUSH32 0x4261646C79204661696C75726500000000000000000000000000000000000000 PUSH0 DUP3 ADD MSTORE POP JUMP JUMPDEST PUSH0 PUSH2 0x772 PUSH1 0xD DUP4 PUSH2 0x5E8 JUMP JUMPDEST SWAP2 POP PUSH2 0x77D DUP3 PUSH2 0x73E JUMP JUMPDEST PUSH1 0x20 DUP3 ADD SWAP1 POP SWAP2 SWAP1 POP JUMP JUMPDEST PUSH0 PUSH1 0x40 DUP3 ADD SWAP1 POP DUP2 DUP2 SUB PUSH0 DUP4 ADD MSTORE PUSH2 0x79F DUP2 PUSH2 0x766 JUMP JUMPDEST SWAP1 POP PUSH2 0x7AE PUSH1 0x20 DUP4 ADD DUP5 PUSH2 0x4E2 JUMP JUMPDEST SWAP3 SWAP2 POP POP JUMP JUMPDEST PUSH32 0x4E487B7100000000000000000000000000000000000000000000000000000000 PUSH0 MSTORE PUSH1 0x11 PUSH1 0x4 MSTORE PUSH1 0x24 PUSH0 REVERT JUMPDEST PUSH0 PUSH2 0x7EB DUP3 PUSH2 0x4D9 JUMP JUMPDEST SWAP2 POP PUSH2 0x7F6 DUP4 PUSH2 0x4D9 JUMP JUMPDEST SWAP3 POP DUP3 DUP3 SUB SWAP1 POP DUP2 DUP2 GT ISZERO PUSH2 0x80E JUMPI PUSH2 0x80D PUSH2 0x7B4 JUMP JUMPDEST JUMPDEST SWAP3 SWAP2 POP POP JUMP JUMPDEST PUSH32 0x6465706F73697465640000000000000000000000000000000000000000000000 PUSH0 DUP3 ADD MSTORE POP JUMP JUMPDEST PUSH0 PUSH2 0x848 PUSH1 0x9 DUP4 PUSH2 0x5E8 JUMP JUMPDEST SWAP2 POP PUSH2 0x853 DUP3 PUSH2 0x814 JUMP JUMPDEST PUSH1 0x20 DUP3 ADD SWAP1 POP SWAP2 SWAP1 POP JUMP JUMPDEST PUSH0 PUSH1 0x40 DUP3 ADD SWAP1 POP DUP2 DUP2 SUB PUSH0 DUP4 ADD MSTORE PUSH2 0x875 DUP2 PUSH2 0x83C JUMP JUMPDEST SWAP1 POP PUSH2 0x884 PUSH1 0x20 DUP4 ADD DUP5 PUSH2 0x4E2 JUMP JUMPDEST SWAP3 SWAP2 POP POP JUMP JUMPDEST PUSH0 PUSH2 0x894 DUP3 PUSH2 0x4D9 JUMP JUMPDEST SWAP2 POP PUSH2 0x89F DUP4 PUSH2 0x4D9 JUMP JUMPDEST SWAP3 POP DUP3 DUP3 ADD SWAP1 POP DUP1 DUP3 GT ISZERO PUSH2 0x8B7 JUMPI PUSH2 0x8B6 PUSH2 0x7B4 JUMP JUMPDEST JUMPDEST SWAP3 SWAP2 POP POP JUMP INVALID LOG2 PUSH5 0x6970667358 0x22 SLT KECCAK256 0xAF 0xCA 0xEB SWAP1 EXTCODESIZE SWAP9 0xCA SLOAD 0xEE 0x23 0xE1 DUP3 0x25 BYTE PUSH31 0xD1A1CB8C0BBED877B422C36F9EA95FCD5464736F6C634300081C0033000000 "
				},
				"gasEstimates": {
					"creation": {
						"codeDepositCost": "458200",
						"executionCost": "491",
						"totalCost": "458691"
					},
					"external": {
						"Balance()": "2497",
						"balances(address)": "2802",
						"deposit(uint256)": "infinite",
						"getBalance(address)": "2917",
						"temp()": "2468",
						"withdraw(uint256)": "infinite"
					}
				},
				"methodIdentifiers": {
					"Balance()": "0ef67887",
					"balances(address)": "27e235e3",
					"deposit(uint256)": "b6b55f25",
					"getBalance(address)": "f8b2cb4f",
					"temp()": "673402e5",
					"withdraw(uint256)": "2e1a7d4d"
				}
			},
			"storageLayout": {
				"storage": [
					{
						"astId": 93,
						"contract": "contract/ReentrancyAttacks/VulnerableContract.sol:VulnerableContract",
						"label": "temp",
						"offset": 0,
						"slot": "0",
						"type": "t_uint256"
					},
					{
						"astId": 103,
						"contract": "contract/ReentrancyAttacks/VulnerableContract.sol:VulnerableContract",
						"label": "balances",
						"offset": 0,
						"slot": "1",
						"type": "t_mapping(t_address,t_uint256)"
					}
				],
				"types": {
					"t_address": {
						"encoding": "inplace",
						"label": "address",
						"numberOfBytes": "20"
					},
					"t_mapping(t_address,t_uint256)": {
						"encoding": "mapping",
						"key": "t_address",
						"label": "mapping(address => uint256)",
						"numberOfBytes": "32",
						"value": "t_uint256"
					},
					"t_uint256": {
						"encoding": "inplace",
						"label": "uint256",
						"numberOfBytes": "32"
					}
				}
			},
			"userdoc": {
				"kind": "user",
				"methods": {},
				"version": 1
			}
		}
	}
}